{
    "contractName": "BlockchainClubMembership",
    "abi": [
        {
            "anonymous": false,
            "inputs": [
                {
                    "indexed": false,
                    "internalType": "address",
                    "name": "previousAdmin",
                    "type": "address"
                },
                {
                    "indexed": false,
                    "internalType": "address",
                    "name": "newAdmin",
                    "type": "address"
                }
            ],
            "name": "AdminChanged",
            "type": "event"
        },
        {
            "anonymous": false,
            "inputs": [
                {
                    "indexed": true,
                    "internalType": "address",
                    "name": "owner",
                    "type": "address"
                },
                {
                    "indexed": true,
                    "internalType": "address",
                    "name": "approved",
                    "type": "address"
                },
                {
                    "indexed": true,
                    "internalType": "uint256",
                    "name": "tokenId",
                    "type": "uint256"
                }
            ],
            "name": "Approval",
            "type": "event"
        },
        {
            "anonymous": false,
            "inputs": [
                {
                    "indexed": true,
                    "internalType": "address",
                    "name": "owner",
                    "type": "address"
                },
                {
                    "indexed": true,
                    "internalType": "address",
                    "name": "operator",
                    "type": "address"
                },
                {
                    "indexed": false,
                    "internalType": "bool",
                    "name": "approved",
                    "type": "bool"
                }
            ],
            "name": "ApprovalForAll",
            "type": "event"
        },
        {
            "anonymous": false,
            "inputs": [
                {
                    "indexed": true,
                    "internalType": "address",
                    "name": "beacon",
                    "type": "address"
                }
            ],
            "name": "BeaconUpgraded",
            "type": "event"
        },
        {
            "anonymous": false,
            "inputs": [
                {
                    "indexed": false,
                    "internalType": "uint8",
                    "name": "version",
                    "type": "uint8"
                }
            ],
            "name": "Initialized",
            "type": "event"
        },
        {
            "anonymous": false,
            "inputs": [
                {
                    "indexed": true,
                    "internalType": "address",
                    "name": "previousOwner",
                    "type": "address"
                },
                {
                    "indexed": true,
                    "internalType": "address",
                    "name": "newOwner",
                    "type": "address"
                }
            ],
            "name": "OwnershipTransferStarted",
            "type": "event"
        },
        {
            "anonymous": false,
            "inputs": [
                {
                    "indexed": true,
                    "internalType": "address",
                    "name": "previousOwner",
                    "type": "address"
                },
                {
                    "indexed": true,
                    "internalType": "address",
                    "name": "newOwner",
                    "type": "address"
                }
            ],
            "name": "OwnershipTransferred",
            "type": "event"
        },
        {
            "anonymous": false,
            "inputs": [
                {
                    "indexed": false,
                    "internalType": "address",
                    "name": "account",
                    "type": "address"
                }
            ],
            "name": "Paused",
            "type": "event"
        },
        {
            "anonymous": false,
            "inputs": [
                {
                    "indexed": true,
                    "internalType": "address",
                    "name": "member",
                    "type": "address"
                },
                {
                    "indexed": true,
                    "internalType": "bytes32",
                    "name": "role",
                    "type": "bytes32"
                },
                {
                    "indexed": false,
                    "internalType": "uint256",
                    "name": "tokenCount",
                    "type": "uint256"
                }
            ],
            "name": "StatsUpdated",
            "type": "event"
        },
        {
            "anonymous": false,
            "inputs": [
                {
                    "indexed": true,
                    "internalType": "address",
                    "name": "to",
                    "type": "address"
                },
                {
                    "indexed": true,
                    "internalType": "uint256",
                    "name": "tokenId",
                    "type": "uint256"
                },
                {
                    "indexed": true,
                    "internalType": "bytes32",
                    "name": "tokenType",
                    "type": "bytes32"
                }
            ],
            "name": "TokenMinted",
            "type": "event"
        },
        {
            "anonymous": false,
            "inputs": [
                {
                    "indexed": true,
                    "internalType": "bytes32",
                    "name": "typeId",
                    "type": "bytes32"
                },
                {
                    "indexed": false,
                    "internalType": "string",
                    "name": "name",
                    "type": "string"
                },
                {
                    "indexed": false,
                    "internalType": "string",
                    "name": "category",
                    "type": "string"
                }
            ],
            "name": "TokenTypeCreated",
            "type": "event"
        },
        {
            "anonymous": false,
            "inputs": [
                {
                    "indexed": true,
                    "internalType": "address",
                    "name": "from",
                    "type": "address"
                },
                {
                    "indexed": true,
                    "internalType": "address",
                    "name": "to",
                    "type": "address"
                },
                {
                    "indexed": true,
                    "internalType": "uint256",
                    "name": "tokenId",
                    "type": "uint256"
                }
            ],
            "name": "Transfer",
            "type": "event"
        },
        {
            "anonymous": false,
            "inputs": [
                {
                    "indexed": false,
                    "internalType": "address",
                    "name": "account",
                    "type": "address"
                }
            ],
            "name": "Unpaused",
            "type": "event"
        },
        {
            "anonymous": false,
            "inputs": [
                {
                    "indexed": true,
                    "internalType": "address",
                    "name": "implementation",
                    "type": "address"
                }
            ],
            "name": "Upgraded",
            "type": "event"
        },
        {
            "anonymous": false,
            "inputs": [
                {
                    "indexed": true,
                    "internalType": "address",
                    "name": "account",
                    "type": "address"
                },
                {
                    "indexed": false,
                    "internalType": "bool",
                    "name": "status",
                    "type": "bool"
                }
            ],
            "name": "WhitelistUpdated",
            "type": "event"
        },
        {
            "inputs": [],
            "name": "MEMBER_TOKEN_TYPE",
            "outputs": [
                {
                    "internalType": "bytes32",
                    "name": "",
                    "type": "bytes32"
                }
            ],
            "stateMutability": "view",
            "type": "function"
        },
        {
            "inputs": [],
            "name": "acceptOwnership",
            "outputs": [],
            "stateMutability": "nonpayable",
            "type": "function"
        },
        {
            "inputs": [
                {
                    "internalType": "address",
                    "name": "to",
                    "type": "address"
                },
                {
                    "internalType": "uint256",
                    "name": "tokenId",
                    "type": "uint256"
                }
            ],
            "name": "approve",
            "outputs": [],
            "stateMutability": "nonpayable",
            "type": "function"
        },
        {
            "inputs": [
                {
                    "internalType": "address",
                    "name": "owner",
                    "type": "address"
                }
            ],
            "name": "balanceOf",
            "outputs": [
                {
                    "internalType": "uint256",
                    "name": "",
                    "type": "uint256"
                }
            ],
            "stateMutability": "view",
            "type": "function"
        },
        {
            "inputs": [
                {
                    "internalType": "uint256",
                    "name": "tokenId",
                    "type": "uint256"
                }
            ],
            "name": "burnToken",
            "outputs": [],
            "stateMutability": "nonpayable",
            "type": "function"
        },
        {
            "inputs": [
                {
                    "internalType": "bytes32",
                    "name": "typeId",
                    "type": "bytes32"
                },
                {
                    "internalType": "string",
                    "name": "name",
                    "type": "string"
                },
                {
                    "internalType": "string",
                    "name": "category",
                    "type": "string"
                },
                {
                    "internalType": "uint256",
                    "name": "startTime",
                    "type": "uint256"
                },
                {
                    "internalType": "uint256",
                    "name": "endTime",
                    "type": "uint256"
                },
                {
                    "internalType": "uint256",
                    "name": "maxSupply",
                    "type": "uint256"
                },
                {
                    "internalType": "enum BlockchainClubMembership.MintAccess",
                    "name": "mintAccess",
                    "type": "uint8"
                }
            ],
            "name": "createTokenType",
            "outputs": [],
            "stateMutability": "nonpayable",
            "type": "function"
        },
        {
            "inputs": [
                {
                    "internalType": "uint256",
                    "name": "tokenId",
                    "type": "uint256"
                }
            ],
            "name": "getApproved",
            "outputs": [
                {
                    "internalType": "address",
                    "name": "",
                    "type": "address"
                }
            ],
            "stateMutability": "view",
            "type": "function"
        },
        {
            "inputs": [],
            "name": "getMemberCount",
            "outputs": [
                {
                    "internalType": "uint256",
                    "name": "",
                    "type": "uint256"
                }
            ],
            "stateMutability": "view",
            "type": "function"
        },
        {
            "inputs": [],
            "name": "getOfficerCount",
            "outputs": [
                {
                    "internalType": "uint256",
                    "name": "",
                    "type": "uint256"
                }
            ],
            "stateMutability": "view",
            "type": "function"
        },
        {
            "inputs": [
                {
                    "internalType": "string",
                    "name": "name",
                    "type": "string"
                },
                {
                    "internalType": "string",
                    "name": "symbol",
                    "type": "string"
                },
                {
                    "internalType": "address",
                    "name": "rolesContract",
                    "type": "address"
                }
            ],
            "name": "initialize",
            "outputs": [],
            "stateMutability": "nonpayable",
            "type": "function"
        },
        {
            "inputs": [
                {
                    "internalType": "address",
                    "name": "owner",
                    "type": "address"
                },
                {
                    "internalType": "address",
                    "name": "operator",
                    "type": "address"
                }
            ],
            "name": "isApprovedForAll",
            "outputs": [
                {
                    "internalType": "bool",
                    "name": "",
                    "type": "bool"
                }
            ],
            "stateMutability": "view",
            "type": "function"
        },
        {
            "inputs": [
                {
                    "internalType": "address",
                    "name": "",
                    "type": "address"
                }
            ],
            "name": "memberStats",
            "outputs": [
                {
                    "internalType": "uint256",
                    "name": "joinDate",
                    "type": "uint256"
                },
                {
                    "internalType": "uint256",
                    "name": "tokenCount",
                    "type": "uint256"
                },
                {
                    "internalType": "bytes32",
                    "name": "currentRole",
                    "type": "bytes32"
                },
                {
                    "internalType": "bool",
                    "name": "isActive",
                    "type": "bool"
                }
            ],
            "stateMutability": "view",
            "type": "function"
        },
        {
            "inputs": [
                {
                    "internalType": "address",
                    "name": "to",
                    "type": "address"
                },
                {
                    "internalType": "bytes32",
                    "name": "tokenType",
                    "type": "bytes32"
                },
                {
                    "internalType": "bool",
                    "name": "isSoulbound",
                    "type": "bool"
                }
            ],
            "name": "mint",
            "outputs": [],
            "stateMutability": "nonpayable",
            "type": "function"
        },
        {
            "inputs": [],
            "name": "name",
            "outputs": [
                {
                    "internalType": "string",
                    "name": "",
                    "type": "string"
                }
            ],
            "stateMutability": "view",
            "type": "function"
        },
        {
            "inputs": [],
            "name": "owner",
            "outputs": [
                {
                    "internalType": "address",
                    "name": "",
                    "type": "address"
                }
            ],
            "stateMutability": "view",
            "type": "function"
        },
        {
            "inputs": [
                {
                    "internalType": "uint256",
                    "name": "tokenId",
                    "type": "uint256"
                }
            ],
            "name": "ownerOf",
            "outputs": [
                {
                    "internalType": "address",
                    "name": "",
                    "type": "address"
                }
            ],
            "stateMutability": "view",
            "type": "function"
        },
        {
            "inputs": [],
            "name": "pause",
            "outputs": [],
            "stateMutability": "nonpayable",
            "type": "function"
        },
        {
            "inputs": [],
            "name": "paused",
            "outputs": [
                {
                    "internalType": "bool",
                    "name": "",
                    "type": "bool"
                }
            ],
            "stateMutability": "view",
            "type": "function"
        },
        {
            "inputs": [],
            "name": "pendingOwner",
            "outputs": [
                {
                    "internalType": "address",
                    "name": "",
                    "type": "address"
                }
            ],
            "stateMutability": "view",
            "type": "function"
        },
        {
            "inputs": [],
            "name": "proxiableUUID",
            "outputs": [
                {
                    "internalType": "bytes32",
                    "name": "",
                    "type": "bytes32"
                }
            ],
            "stateMutability": "view",
            "type": "function"
        },
        {
            "inputs": [
                {
                    "internalType": "bytes32",
                    "name": "tokenType",
                    "type": "bytes32"
                },
                {
                    "internalType": "bool",
                    "name": "isSoulbound",
                    "type": "bool"
                }
            ],
            "name": "publicMint",
            "outputs": [],
            "stateMutability": "nonpayable",
            "type": "function"
        },
        {
            "inputs": [],
            "name": "renounceOwnership",
            "outputs": [],
            "stateMutability": "nonpayable",
            "type": "function"
        },
        {
            "inputs": [],
            "name": "roles",
            "outputs": [
                {
                    "internalType": "contract IRoles",
                    "name": "",
                    "type": "address"
                }
            ],
            "stateMutability": "view",
            "type": "function"
        },
        {
            "inputs": [
                {
                    "internalType": "address",
                    "name": "from",
                    "type": "address"
                },
                {
                    "internalType": "address",
                    "name": "to",
                    "type": "address"
                },
                {
                    "internalType": "uint256",
                    "name": "tokenId",
                    "type": "uint256"
                }
            ],
            "name": "safeTransferFrom",
            "outputs": [],
            "stateMutability": "nonpayable",
            "type": "function"
        },
        {
            "inputs": [
                {
                    "internalType": "address",
                    "name": "from",
                    "type": "address"
                },
                {
                    "internalType": "address",
                    "name": "to",
                    "type": "address"
                },
                {
                    "internalType": "uint256",
                    "name": "tokenId",
                    "type": "uint256"
                },
                {
                    "internalType": "bytes",
                    "name": "data",
                    "type": "bytes"
                }
            ],
            "name": "safeTransferFrom",
            "outputs": [],
            "stateMutability": "nonpayable",
            "type": "function"
        },
        {
            "inputs": [
                {
                    "internalType": "address",
                    "name": "operator",
                    "type": "address"
                },
                {
                    "internalType": "bool",
                    "name": "approved",
                    "type": "bool"
                }
            ],
            "name": "setApprovalForAll",
            "outputs": [],
            "stateMutability": "nonpayable",
            "type": "function"
        },
        {
            "inputs": [
                {
                    "internalType": "string",
                    "name": "newBaseURI",
                    "type": "string"
                }
            ],
            "name": "setBaseURI",
            "outputs": [],
            "stateMutability": "nonpayable",
            "type": "function"
        },
        {
            "inputs": [
                {
                    "internalType": "uint256",
                    "name": "",
                    "type": "uint256"
                }
            ],
            "name": "soulbound",
            "outputs": [
                {
                    "internalType": "bool",
                    "name": "",
                    "type": "bool"
                }
            ],
            "stateMutability": "view",
            "type": "function"
        },
        {
            "inputs": [
                {
                    "internalType": "bytes4",
                    "name": "interfaceId",
                    "type": "bytes4"
                }
            ],
            "name": "supportsInterface",
            "outputs": [
                {
                    "internalType": "bool",
                    "name": "",
                    "type": "bool"
                }
            ],
            "stateMutability": "view",
            "type": "function"
        },
        {
            "inputs": [],
            "name": "symbol",
            "outputs": [
                {
                    "internalType": "string",
                    "name": "",
                    "type": "string"
                }
            ],
            "stateMutability": "view",
            "type": "function"
        },
        {
            "inputs": [
                {
                    "internalType": "uint256",
                    "name": "index",
                    "type": "uint256"
                }
            ],
            "name": "tokenByIndex",
            "outputs": [
                {
                    "internalType": "uint256",
                    "name": "",
                    "type": "uint256"
                }
            ],
            "stateMutability": "view",
            "type": "function"
        },
        {
            "inputs": [
                {
                    "internalType": "address",
                    "name": "owner",
                    "type": "address"
                },
                {
                    "internalType": "uint256",
                    "name": "index",
                    "type": "uint256"
                }
            ],
            "name": "tokenOfOwnerByIndex",
            "outputs": [
                {
                    "internalType": "uint256",
                    "name": "",
                    "type": "uint256"
                }
            ],
            "stateMutability": "view",
            "type": "function"
        },
        {
            "inputs": [
                {
                    "internalType": "bytes32",
                    "name": "",
                    "type": "bytes32"
                }
            ],
            "name": "tokenTypeConfigs",
            "outputs": [
                {
                    "internalType": "string",
                    "name": "name",
                    "type": "string"
                },
                {
                    "internalType": "string",
                    "name": "category",
                    "type": "string"
                },
                {
                    "internalType": "uint256",
                    "name": "startTime",
                    "type": "uint256"
                },
                {
                    "internalType": "uint256",
                    "name": "endTime",
                    "type": "uint256"
                },
                {
                    "internalType": "uint256",
                    "name": "maxSupply",
                    "type": "uint256"
                },
                {
                    "internalType": "uint256",
                    "name": "currentSupply",
                    "type": "uint256"
                },
                {
                    "internalType": "bool",
                    "name": "isActive",
                    "type": "bool"
                },
                {
                    "internalType": "enum BlockchainClubMembership.MintAccess",
                    "name": "mintAccess",
                    "type": "uint8"
                }
            ],
            "stateMutability": "view",
            "type": "function"
        },
        {
            "inputs": [
                {
                    "internalType": "uint256",
                    "name": "",
                    "type": "uint256"
                }
            ],
            "name": "tokenTypes",
            "outputs": [
                {
                    "internalType": "bytes32",
                    "name": "",
                    "type": "bytes32"
                }
            ],
            "stateMutability": "view",
            "type": "function"
        },
        {
            "inputs": [
                {
                    "internalType": "uint256",
                    "name": "tokenId",
                    "type": "uint256"
                }
            ],
            "name": "tokenURI",
            "outputs": [
                {
                    "internalType": "string",
                    "name": "",
                    "type": "string"
                }
            ],
            "stateMutability": "view",
            "type": "function"
        },
        {
            "inputs": [],
            "name": "totalSupply",
            "outputs": [
                {
                    "internalType": "uint256",
                    "name": "",
                    "type": "uint256"
                }
            ],
            "stateMutability": "view",
            "type": "function"
        },
        {
            "inputs": [
                {
                    "internalType": "address",
                    "name": "from",
                    "type": "address"
                },
                {
                    "internalType": "address",
                    "name": "to",
                    "type": "address"
                },
                {
                    "internalType": "uint256",
                    "name": "tokenId",
                    "type": "uint256"
                }
            ],
            "name": "transferFrom",
            "outputs": [],
            "stateMutability": "nonpayable",
            "type": "function"
        },
        {
            "inputs": [
                {
                    "internalType": "address",
                    "name": "newOwner",
                    "type": "address"
                }
            ],
            "name": "transferOwnership",
            "outputs": [],
            "stateMutability": "nonpayable",
            "type": "function"
        },
        {
            "inputs": [],
            "name": "unpause",
            "outputs": [],
            "stateMutability": "nonpayable",
            "type": "function"
        },
        {
            "inputs": [
                {
                    "internalType": "address",
                    "name": "account",
                    "type": "address"
                },
                {
                    "internalType": "bool",
                    "name": "status",
                    "type": "bool"
                }
            ],
            "name": "updateWhitelist",
            "outputs": [],
            "stateMutability": "nonpayable",
            "type": "function"
        },
        {
            "inputs": [
                {
                    "internalType": "address",
                    "name": "newImplementation",
                    "type": "address"
                }
            ],
            "name": "upgradeTo",
            "outputs": [],
            "stateMutability": "nonpayable",
            "type": "function"
        },
        {
            "inputs": [
                {
                    "internalType": "address",
                    "name": "newImplementation",
                    "type": "address"
                },
                {
                    "internalType": "bytes",
                    "name": "data",
                    "type": "bytes"
                }
            ],
            "name": "upgradeToAndCall",
            "outputs": [],
            "stateMutability": "payable",
            "type": "function"
        },
        {
            "inputs": [
                {
                    "internalType": "address",
                    "name": "",
                    "type": "address"
                }
            ],
            "name": "whitelist",
            "outputs": [
                {
                    "internalType": "bool",
                    "name": "",
                    "type": "bool"
                }
            ],
            "stateMutability": "view",
            "type": "function"
        }
    ],
    "bytecode": "60a08060405234603057306080526147f29081610035823960805181818161199e01528181611b1a0152611e9c0152f35b5f80fdfe6080806040526004361015610012575f80fd5b5f905f3560e01c90816301ffc9a71461301757508063048b26c814612fdd57806306fdde0314612f26578063077f224a14612a6f578063081812fc14612a51578063095ea7b3146128cb5780630baa7a4f1461249f5780630d392cd91461236357806318160ddd1461234557806323b872dd1461232057806324313ce0146122565780632d91060a146121f45780632f745c591461214757806333f6832a1461211c5780633659cfe614611e7d578063392f5f6414611e535780633f4ba83a14611dbc57806342842e0e14611d875780634f1ef28614611ae15780634f6ccce714611a4e57806352d1902d1461198b57806355f804b3146117655780635c975abb146117415780636352211e1461171057806370a08231146116e4578063715018a61461167d57806379ba5097146115f85780637a181597146115c85780637b47ec1a146111ad5780638456cb59146111505780638da5cb5b1461112757806395d89b411461106b578063997072f714610ff25780639b19251a14610fb2578063a22cb46514610edc578063b88d4fde14610e60578063c87b56dd14610e28578063d126713f14610929578063d9d171c3146103e4578063e30c3978146103bb578063e935a2f5146102bf578063e985e9c5146102675763f2fde38b146101f7575f80fd5b3461026457602036600319011261026457610210613150565b6102186142f6565b60fb80546001600160a01b0319166001600160a01b0392831690811790915560c9549091167f38d16b8cac22d99fc7c124b9cd0de2d3fa1faef420bfe791d8c362d765e227008380a380f35b80fd5b5034610264576040366003190112610264576040610283613150565b9161028c613166565b9260018060a01b03168152606a602052209060018060a01b03165f52602052602060ff60405f2054166040519015158152f35b50346102645780600319360112610264576101f554604051637264953b60e01b81526001600160a01b039091169190602081600481865afa80156103b057829061037d575b6020915060246040518095819363ca15c87360e01b835260048301525afa908115610371579061033a575b602090604051908152f35b506020813d602011610369575b81610354602093836130c0565b81010312610365576020905161032f565b5f80fd5b3d9150610347565b604051903d90823e3d90fd5b506020813d6020116103a8575b81610397602093836130c0565b810103126103655760209051610304565b3d915061038a565b6040513d84823e3d90fd5b503461026457806003193601126102645760fb546040516001600160a01b039091168152602090f35b50346102645760e0366003190112610264576024356001600160401b0381116109255761041590369060040161329d565b906044356001600160401b0381116109215761043590369060040161329d565b60c493919335600381101561091d576101f554604051637264953b60e01b81526001600160a01b0390911690602081600481855afa9081156109125788916108de575b50604051632474521560e21b815260048101919091523360248201529060209082908180604481015b03915afa80156108d3576104bc9188916108a4575b5061347b565b60043586526101fb6020526004604087200154610869576040519061010082018281106001600160401b03821117610855576040526104fc3685876130fc565b82526105093684886130fc565b60208301526064356040830152608435606083015260a43560808301528660a0830152600160c083015260e082015260043586526101fb6020526040862081518051906001600160401b03821161078757819061056684546131c5565b601f8111610808575b50602090601f83116001146107a6578a9261079b575b50508160011b915f199060031b1c19161781555b60208201518051906001600160401b038211610787576105bc60018401546131c5565b601f8111610743575b50602090601f83116001146106d657918060e094926006948c926106cb575b50508160011b915f199060031b1c19161760018201555b60408401516002820155606084015160038201556080840151600482015560a08401516005820155019161064160c08201511515849060ff801983541691151516179055565b015160038110156106b757916106b1917f676280b0464e972d2ec145e22ee85f72283f36c9b6406ad38fa69ad7e201ab1995949361ff0082549160081b169061ff00191617905561069f6040519485946040865260408601916139eb565b908382036020850152600435966139eb565b0390a280f35b634e487b7160e01b87526021600452602487fd5b015190505f806105e4565b600184018a52818a209190601f1984168b5b81811061072b575092600192859260069660e0989610610713575b505050811b0160018201556105fb565b01515f1960f88460031b161c191690555f8080610703565b929360206001819287860151815501950193016106e8565b600184018a5260208a20601f840160051c810160208510610780575b601f830160051c820181106107755750506105c5565b8b815560010161075f565b508061075f565b634e487b7160e01b89526041600452602489fd5b015190505f80610585565b848b52818b209250601f1984168b5b8181106107f057509084600195949392106107d8575b505050811b018155610599565b01515f1960f88460031b161c191690555f80806107cb565b929360206001819287860151815501950193016107b5565b909150838a5260208a20601f840160051c81016020851061084e575b90849392915b601f830160051c8201811061084057505061056f565b8c815585945060010161082a565b5080610824565b634e487b7160e01b88526041600452602488fd5b60405162461bcd60e51b81526020600482015260136024820152725479706520616c72656164792065786973747360681b6044820152606490fd5b6108c6915060203d6020116108cc575b6108be81836130c0565b810190613441565b5f6104b6565b503d6108b4565b6040513d89823e3d90fd5b90506020813d60201161090a575b816108f9602093836130c0565b8101031261036557516104a1610478565b3d91506108ec565b6040513d8a823e3d90fd5b8580fd5b8380fd5b5080fd5b503461026457606036600319011261026457610943613150565b60243590604435908115158203610921576101f554604051637264953b60e01b81526001600160a01b0390911690602081600481855afa908115610da6578691610df4575b50604051632474521560e21b815260048101919091523360248201529060209082908180604481015b03915afa8015610de9576109cb9186916108a4575061347b565b6109d3613a6b565b6109db613ab0565b6001600160a01b0381168085526101f9602052604085205490919060ff168015610d0c575b15610cc75784908482526101fb60205260408220610a2460ff600683015416613306565b610a5860036005830192610a3e845460048301541161334a565b610a4e600282015442101561338b565b01544211156133e7565b610aa46101f85495610a6987613459565b6101f855610a778785613b08565b8685526101f66020528760408620558685526101f7602052604085209060ff801983541691151516179055565b610aae8154613459565b9055610ab981613c89565b7fffa60083152bd11704a80cc8c7a409dad8aa74288b454a3ba0e94c0abc7cf168851480610cb0575b610b15575b50807ff7c26764c1651c47eb32bb74d317b3c6427ef68cd498b882789b951780ed0a4591a460016101915580f35b6101f554604051635087a34f60e11b81526001600160a01b039091169190602081600481865afa908115610c4e578491610c78575b50604051632474521560e21b815260048101919091526001600160a01b0382166024820152602081604481865afa908115610c4e578491610c59575b5015610b93575b50610ae7565b604051635087a34f60e11b815290602082600481865afa918215610c4e578492610c17575b50823b1561092157604051632f2ff15d60e01b815260048101929092526001600160a01b031660248201529082908290604490829084905af180156103b057610c02575b80610b8d565b81610c0c916130c0565b61092157835f610bfc565b935090506020833d602011610c46575b81610c34602093836130c0565b8101031261036557869251905f610bb8565b3d9150610c27565b6040513d86823e3d90fd5b610c72915060203d6020116108cc576108be81836130c0565b5f610b86565b9350506020833d602011610ca8575b81610c94602093836130c0565b810103126103655791518692906020610b4a565b3d9150610c87565b508282526101f960205260ff604083205416610ae2565b60405162461bcd60e51b815260206004820152601760248201527f41646472657373206e6f742077686974656c69737465640000000000000000006044820152606490fd5b506101f554604051635087a34f60e11b8152906001600160a01b0316602082600481845afa80156108d35783928891610db1575b50604051632474521560e21b815260048101919091526001600160a01b03929092166024830152602090829060449082905afa908115610da6578691610d87575b50610a00565b610da0915060203d6020116108cc576108be81836130c0565b5f610d81565b6040513d88823e3d90fd5b9250506020823d602011610de1575b81610dcd602093836130c0565b810103126103655790518291906020610d40565b3d9150610dc0565b6040513d87823e3d90fd5b90506020813d602011610e20575b81610e0f602093836130c0565b8101031261036557516109b1610988565b3d9150610e02565b503461026457602036600319011261026457610e5c610e486004356136f2565b60405191829160208352602083019061309c565b0390f35b503461026457608036600319011261026457610e7a613150565b610e82613166565b90606435906044356001600160401b038311610ed857610ed593610ead610ed0943690600401613132565b92610ec0610ebb8433613f73565b6134bf565b610ecb838383614042565b6145df565b6143f4565b80f35b8480fd5b503461026457604036600319011261026457610ef6613150565b610efe61317c565b6001600160a01b0390911690338214610f6d57338352606a60205260408320825f52602052610f3c8160405f209060ff801983541691151516179055565b60405190151581527f17307eab39ab6107e8899845ad3d59bd9653f200f220920489ca2b5937696c3160203392a380f35b60405162461bcd60e51b815260206004820152601960248201527f4552433732313a20617070726f766520746f2063616c6c6572000000000000006044820152606490fd5b50346102645760203660031901126102645760209060ff906040906001600160a01b03610fdd613150565b1681526101f984522054166040519015158152f35b50346102645780600319360112610264576101f554604051635087a34f60e11b81526001600160a01b039091169190602081600481865afa80156103b057829061037d576020915060246040518095819363ca15c87360e01b835260048301525afa908115610371579061033a57602090604051908152f35b503461026457806003193601126102645760405190806066549061108e826131c5565b808552916001811690811561110057506001146110b6575b610e5c84610e48818603826130c0565b606681525f51602061471d5f395f51905f52939250905b8082106110e657509091508101602001610e48826110a6565b9192600181602092548385880101520191019092916110cd565b60ff191660208087019190915292151560051b85019092019250610e4891508390506110a6565b503461026457806003193601126102645760c9546040516001600160a01b039091168152602090f35b50346102645780600319360112610264576111696142f6565b611171613a6b565b600160ff196101c35416176101c3557f62e78cea01bee320cd4e420270b5ea74000d11b0c9f74754ebdbfc544b05a2586020604051338152a180f35b5034610264576020366003190112610264576101f554604051637264953b60e01b815260048035926001600160a01b03169190602090829081855afa908115610c4e578491611594575b50604051632474521560e21b815260048101919091523360248201529060209082908180604481015b03915afa80156115895761123a9184916108a4575061347b565b6112438161365b565b9061124d8161365b565b611255613a6b565b6001600160a01b0381169081158015908180611582575b611532575b1561147a57505050609954818452609a602052806040852055600160401b81101561146657816112aa8260016112c294016099556135e3565b90919082549060031b91821b915f19901b1916179055565b6099545f19810190811161145257818452609a6020526112e66040852054916135e3565b90549060031b1c6112fa816112aa846135e3565b8452609a6020526040842055808352609a602052826040812055609954801561143e575f1901611329816135e3565b8154905f199060031b1b19169055609955826113448261365b565b8282526069602052604082206001600160601b0360a01b815416905560018060a01b03168082526068602052604082205f1981540190558282526067602052604082206001600160601b0360a01b81541690557fddf252ad1be2c89b69c2b068fc378daa952ba7f163c4a11628f55a4df523b3ef8280a46113c481613c89565b6001600160a01b03168082526101fa602052604082206001015415611421575b8082526101fa6020526002604083200154908083526101fa6020525f51602061477d5f395f51905f5260206001604086200154604051908152a380f35b8082526101fa60205260408220600301805460ff191690556113e4565b634e487b7160e01b84526031600452602484fd5b634e487b7160e01b84526011600452602484fd5b634e487b7160e01b84526041600452602484fd5b611486575b50506112c2565b61148f9061367d565b5f1981019190821161151e57828552609860205260408520548281036114dd575b50828552609860205284604081205584526097602052604084209084526020528260408120555f8061147f565b81865260976020526040862083875260205260408620548287526097602052604087208288526020528060408820558652609860205260408620555f6114b0565b634e487b7160e01b85526011600452602485fd5b8487526101f760205260ff604088205416156112715760405162461bcd60e51b8152602060048201526012602482015271151bdad95b881a5cc81cdbdd5b189bdd5b9960721b6044820152606490fd5b508661126c565b6040513d85823e3d90fd5b90506020813d6020116115c0575b816115af602093836130c0565b8101031261036557516112206111f7565b3d91506115a2565b50346102645760203660031901126102645760ff604060209260043581526101f784522054166040519015158152f35b503461026457806003193601126102645760fb54336001600160a01b039091160361162657610ed53361434e565b60405162461bcd60e51b815260206004820152602960248201527f4f776e61626c6532537465703a2063616c6c6572206973206e6f7420746865206044820152683732bb9037bbb732b960b91b6064820152608490fd5b50346102645780600319360112610264576116966142f6565b60fb80546001600160a01b031990811690915560c98054918216905581906001600160a01b03167f8be0079c531659141344cd1fd0a4f28419497f9722a3daafe3b4186f6b6457e08280a380f35b5034610264576020366003190112610264576020611708611703613150565b61367d565b604051908152f35b503461026457602036600319011261026457602061172f60043561365b565b6040516001600160a01b039091168152f35b5034610264578060031936011261026457602060ff6101c354166040519015158152f35b5034610264576020366003190112610264576004356001600160401b03811161092557611796903690600401613132565b9060018060a01b036101f55416604051631d6c8e3f60e21b8152602081600481855afa908115611589578391611957575b50604051632474521560e21b815260048101919091523360248201529060209082908180604481015b03915afa9081156103b0579061180c9183916108a4575061347b565b81516001600160401b038111611943576118286101fc546131c5565b601f81116118da575b50602092601f821160011461186e57928293829392611863575b50508160011b915f199060031b1c1916176101fc5580f35b015190505f8061184b565b6101fc8352601f198216935f51602061479d5f395f51905f5291845b8681106118c257508360019596106118aa575b505050811b016101fc5580f35b01515f1960f88460031b161c191690555f808061189d565b9192602060018192868501518155019401920161188a565b6101fc8352601f820160051c5f51602061479d5f395f51905f5201906020831061192e575b601f0160051c5f51602061479d5f395f51905f5201905b8181106119235750611831565b838155600101611916565b5f51602061479d5f395f51905f5291506118ff565b634e487b7160e01b82526041600452602482fd5b90506020813d602011611983575b81611972602093836130c0565b8101031261036557516117f06117c7565b3d9150611965565b50346102645780600319360112610264577f00000000000000000000000000000000000000000000000000000000000000006001600160a01b031630036119e35760206040515f51602061475d5f395f51905f528152f35b60405162461bcd60e51b815260206004820152603860248201527f555550535570677261646561626c653a206d757374206e6f742062652063616c60448201527f6c6564207468726f7567682064656c656761746563616c6c00000000000000006064820152608490fd5b503461026457602036600319011261026457600435609954811015611a8757611a786020916135e3565b90549060031b1c604051908152f35b60405162461bcd60e51b815260206004820152602c60248201527f455243373231456e756d657261626c653a20676c6f62616c20696e646578206f60448201526b7574206f6620626f756e647360a01b6064820152608490fd5b50604036600319011261026457611af6613150565b6024356001600160401b038111611d8357611b15903690600401613132565b611b6c7f00000000000000000000000000000000000000000000000000000000000000006001600160a01b0316611b4e30821415613521565b5f51602061475d5f395f51905f52546001600160a01b031614613582565b611b746142f6565b7f4910fdfa16fed3260ed0e7147f7cc6da11a60208b5b9406d12a635614ffd91435460ff1615611ba85750610ed590614429565b6040516352d1902d60e01b81526001600160a01b03831690602081600481855afa859181611d4f575b50611c325760405162461bcd60e51b815260206004820152602e60248201527f45524331393637557067726164653a206e657720696d706c656d656e7461746960448201526d6f6e206973206e6f74205555505360901b6064820152608490fd5b5f51602061475d5f395f51905f5203611cf857611c4e83614429565b7fbc7cd75a20ee27fd9adebab32041f755214dbc6bffa90cc0225b39da2e5c2d3b8480a2805115801590611cf0575b611c8657505080f35b611cec91838060405193611c9b6060866130c0565b602785527f416464726573733a206c6f772d6c6576656c2064656c65676174652063616c6c6020860152660819985a5b195960ca1b6040860152602081519101845af4611ce66144c0565b91614683565b5080f35b506001611c7d565b60405162461bcd60e51b815260206004820152602960248201527f45524331393637557067726164653a20756e737570706f727465642070726f786044820152681a58589b195555525160ba1b6064820152608490fd5b9091506020813d602011611d7b575b81611d6b602093836130c0565b810103126103655751905f611bd1565b3d9150611d5e565b8280fd5b503461026457610ed5610ed0611d9c3661318b565b9060405192611dac6020856130c0565b868452610ec0610ebb8433613f73565b5034610264578060031936011261026457611dd56142f6565b6101c35460ff811615611e175760ff19166101c3557f5db9ee0a495bf2e6ff9c91a7834c1ba4fdd244a5e8aa4e537bd38aeae4b073aa6020604051338152a180f35b60405162461bcd60e51b815260206004820152601460248201527314185d5cd8589b194e881b9bdd081c185d5cd95960621b6044820152606490fd5b50346102645780600319360112610264576101f5546040516001600160a01b039091168152602090f35b503461026457602036600319011261026457611e97613150565b611ed07f00000000000000000000000000000000000000000000000000000000000000006001600160a01b0316611b4e30821415613521565b611ed86142f6565b602090604051611ee883826130c0565b83815282810190601f1984013683377f4910fdfa16fed3260ed0e7147f7cc6da11a60208b5b9406d12a635614ffd91435460ff1615611f2d575050610ed59150614429565b6040516352d1902d60e01b81529192916001600160a01b038316908581600481855afa8791816120ed575b50611fb95760405162461bcd60e51b815260048101879052602e60248201527f45524331393637557067726164653a206e657720696d706c656d656e7461746960448201526d6f6e206973206e6f74205555505360901b6064820152608490fd5b9394937fc9f76b5ec45e5cdef99837d7b6d2467235c1df8933c8ca56df5c35afa2c7d4440161209657908591611fee84614429565b7fbc7cd75a20ee27fd9adebab32041f755214dbc6bffa90cc0225b39da2e5c2d3b8380a280511580159061208f575b61202a575b505050505080f35b6120849482917f416464726573733a206c6f772d6c6576656c2064656c65676174652063616c6c604051966120606060896130c0565b60278852870152660819985a5b195960ca1b60408701525190845af4611ce66144c0565b505f80808381612022565b508161201d565b60405162461bcd60e51b815260048101859052602960248201527f45524331393637557067726164653a20756e737570706f727465642070726f786044820152681a58589b195555525160ba1b6064820152608490fd5b9091508681813d8311612115575b61210581836130c0565b810103126103655751905f611f58565b503d6120fb565b503461026457602036600319011261026457604060209160043581526101f683522054604051908152f35b503461026457604036600319011261026457612161613150565b6024359161216e8261367d565b83101561219b5760209260409260018060a01b031682526097845282822090825283522054604051908152f35b60405162461bcd60e51b815260206004820152602b60248201527f455243373231456e756d657261626c653a206f776e657220696e646578206f7560448201526a74206f6620626f756e647360a81b6064820152608490fd5b5034610264576020366003190112610264576080906040906001600160a01b0361221c613150565b1681526101fa6020522080549060018101549060ff6003600283015492015416916040519384526020840152604083015215156060820152f35b50346102645760203660031901126102645760043581526101fb60205260408120612280816131fd565b9061228d600182016131fd565b60ff600283015492600381015490600481015460066005830154920154926122da858560081c16966122cc6040519a6101008c526101008c019061309c565b908a820360208c015261309c565b9660408901526060880152608087015260a086015216151560c0840152600381101561230c5782935060e08301520390f35b634e487b7160e01b84526021600452602484fd5b503461026457610ed56123323661318b565b91612340610ebb8433613f73565b614042565b50346102645780600319360112610264576020609954604051908152f35b50346102645760403660031901126102645761237d613150565b61238561317c565b6101f554604051637264953b60e01b815291926001600160a01b0390911691602081600481865afa908115610de957859161246b575b50604051632474521560e21b815260048101919091523360248201529160209083908180604481015b03915afa908115610c4e576124236020927ff93f9a76c1bf3444d22400a00cb9fe990e6abe9dbb333fda48859cfee864543d948791612454575061347b565b6001600160a01b03168085526101f9825260408520805460ff191660ff86151516179055926040519015158152a280f35b6108c69150843d86116108cc576108be81836130c0565b90506020813d602011612497575b81612486602093836130c0565b8101031261036557516123e46123bb565b3d9150612479565b5034610365576040366003190112610365576004356124bc61317c565b6124c4613a6b565b6124cc613ab0565b815f526101fb60205260405f2060ff60068201546124eb828216613306565b61250560036005850194610a3e865460048301541161334a565b60081c1660038110156128b7578061286457506101f554604051637264953b60e01b81526001600160a01b0390911690602081600481855afa908115612734575f91612830575b50604051632474521560e21b815260048101919091523360248201529060209082908180604481015b03915afa908115612734575f91612811575b50156127dc575b6125da6101f8549261259f84613459565b6101f8556125ad8433613b08565b835f526101f66020528460405f2055835f526101f760205260405f209060ff801983541691151516179055565b6125e48154613459565b90556125ef33613c89565b7fffa60083152bd11704a80cc8c7a409dad8aa74288b454a3ba0e94c0abc7cf1688214806127c5575b61264b575b337ff7c26764c1651c47eb32bb74d317b3c6427ef68cd498b882789b951780ed0a458480a460016101915580f35b6101f554604051635087a34f60e11b81526001600160a01b0390911690602081600481855afa908115612734575f91612792575b50604051632474521560e21b81526004810191909152336024820152602081604481855afa908115612734575f91612773575b50156126bf575b5061261d565b604051635087a34f60e11b815290602082600481845afa918215612734575f9261273f575b50803b1561036557604051632f2ff15d60e01b815260048101929092523360248301525f908290604490829084905af1801561273457156126b95761272c9193505f906130c0565b5f915f6126b9565b6040513d5f823e3d90fd5b9091506020813d60201161276b575b8161275b602093836130c0565b810103126103655751905f6126e4565b3d915061274e565b61278c915060203d6020116108cc576108be81836130c0565b5f6126b2565b90506020813d6020116127bd575b816127ad602093836130c0565b810103126103655751602061267f565b3d91506127a0565b50335f526101f960205260ff60405f205416612618565b60405162461bcd60e51b815260206004820152600d60248201526c4f66666963657273206f6e6c7960981b6044820152606490fd5b61282a915060203d6020116108cc576108be81836130c0565b5f612587565b90506020813d60201161285c575b8161284b602093836130c0565b81010312610365575161257561254c565b3d915061283e565b60010361258e57335f526101f960205260ff60405f20541661258e5760405162461bcd60e51b815260206004820152600f60248201526e139bdd081dda1a5d195b1a5cdd1959608a1b6044820152606490fd5b634e487b7160e01b5f52602160045260245ffd5b34610365576040366003190112610365576128e4613150565b602435906001600160a01b036128f98361365b565b6001600160a01b039092169116818114612a02578033149081156129de575b5015612973575f82815260696020526040902080546001600160a01b031916821790556001600160a01b0361294c8361365b565b167f8c5be1e5ebec7d5bd14f71427d1e84f3dd0314c0f7b2291e5b200ac8c7c3b9255f80a4005b60405162461bcd60e51b815260206004820152603d60248201527f4552433732313a20617070726f76652063616c6c6572206973206e6f7420746f60448201527f6b656e206f776e6572206f7220617070726f76656420666f7220616c6c0000006064820152608490fd5b5f908152606a6020908152604080832033845290915290205460ff16905083612918565b60405162461bcd60e51b815260206004820152602160248201527f4552433732313a20617070726f76616c20746f2063757272656e74206f776e656044820152603960f91b6064820152608490fd5b3461036557602036600319011261036557602061172f6004356132ca565b34610365576060366003190112610365576004356001600160401b03811161036557612a9f903690600401613132565b6024356001600160401b03811161036557612abe903690600401613132565b6044356001600160a01b03811690819003610365575f5460ff8160081c161590818092612f19575b8015612f02575b15612ea65760ff1981166001175f5581612e95575b50612b1c60ff5f5460081c16612b1781613a0b565b613a0b565b83516001600160401b038111612da057612b376065546131c5565b601f8111612e2d575b50602094601f8211600114612dbf579481929394955f92612db4575b50508160011b915f199060031b1c1916176065555b82516001600160401b038111612da057612b8c6066546131c5565b601f8111612d38575b506020601f8211600114612cca57819293945f92612cbf575b50508160011b915f199060031b1c1916176066555b612be060ff5f5460081c16612bd781613a0b565b612b1781613a0b565b612be93361434e565b5f5491612c2060ff8460081c16612bff81613a0b565b612c0881613a0b565b612c1181613a0b565b600161019155612b1781613a0b565b60ff196101c354166101c3558015612c81576001600160601b0360a01b6101f55416176101f555612c4d57005b61ff0019165f557f7f26b83ff96e1f2b6a682f133852f6798a09c465da95921460cefb3847402498602060405160018152a1005b60405162461bcd60e51b8152602060048201526016602482015275125b9d985b1a59081c9bdb195cc818dbdb9d1c9858dd60521b6044820152606490fd5b015190508480612bae565b601f1982169060665f525f51602061471d5f395f51905f52915f5b818110612d2057509583600195969710612d08575b505050811b01606655612bc3565b01515f1960f88460031b161c19169055848080612cfa565b9192602060018192868b015181550194019201612ce5565b60665f52601f820160051c5f51602061471d5f395f51905f52019060208310612d8b575b601f0160051c5f51602061471d5f395f51905f5201905b818110612d805750612b95565b5f8155600101612d73565b5f51602061471d5f395f51905f529150612d5c565b634e487b7160e01b5f52604160045260245ffd5b015190508580612b5c565b601f1982169560655f525f51602061473d5f395f51905f52915f5b888110612e1557508360019596979810612dfd575b505050811b01606555612b71565b01515f1960f88460031b161c19169055858080612def565b91926020600181928685015181550194019201612dda565b60655f52601f820160051c5f51602061473d5f395f51905f52019060208310612e80575b601f0160051c5f51602061473d5f395f51905f5201905b818110612e755750612b40565b5f8155600101612e68565b5f51602061473d5f395f51905f529150612e51565b61ffff1916610101175f5584612b02565b60405162461bcd60e51b815260206004820152602e60248201527f496e697469616c697a61626c653a20636f6e747261637420697320616c72656160448201526d191e481a5b9a5d1a585b1a5e995960921b6064820152608490fd5b50303b158015612aed5750600160ff821614612aed565b50600160ff821610612ae6565b34610365575f366003190112610365576040515f606554612f46816131c5565b8084529060018116908115612fb95750600114612f6e575b610e5c83610e48818503826130c0565b60655f9081525f51602061473d5f395f51905f52939250905b808210612f9f57509091508101602001610e48612f5e565b919260018160209254838588010152019101909291612f87565b60ff191660208086019190915291151560051b84019091019150610e489050612f5e565b34610365575f3660031901126103655760206040517fffa60083152bd11704a80cc8c7a409dad8aa74288b454a3ba0e94c0abc7cf1688152f35b34610365576020366003190112610365576004359063ffffffff60e01b82168092036103655760209163780e9d6360e01b8114908115613059575b5015158152f35b6380ac58cd60e01b81149150811561308b575b811561307a575b5083613052565b6301ffc9a760e01b14905083613073565b635b5e139f60e01b8114915061306c565b805180835260209291819084018484015e5f828201840152601f01601f1916010190565b90601f801991011681019081106001600160401b03821117612da057604052565b6001600160401b038111612da057601f01601f191660200190565b929192613108826130e1565b9161311660405193846130c0565b829481845281830111610365578281602093845f960137010152565b9080601f830112156103655781602061314d933591016130fc565b90565b600435906001600160a01b038216820361036557565b602435906001600160a01b038216820361036557565b60243590811515820361036557565b6060906003190112610365576004356001600160a01b038116810361036557906024356001600160a01b0381168103610365579060443590565b90600182811c921680156131f3575b60208310146131df57565b634e487b7160e01b5f52602260045260245ffd5b91607f16916131d4565b9060405191825f825492613210846131c5565b808452936001811690811561327b5750600114613237575b50613235925003836130c0565b565b90505f9291925260205f20905f915b81831061325f575050906020613235928201015f613228565b6020919350806001915483858901015201910190918492613246565b90506020925061323594915060ff191682840152151560051b8201015f613228565b9181601f84011215610365578235916001600160401b038311610365576020838186019501011161036557565b5f818152606760205260409020546132ec906001600160a01b0316151561360f565b5f908152606960205260409020546001600160a01b031690565b1561330d57565b60405162461bcd60e51b8152602060048201526015602482015274546f6b656e2074797065206e6f742061637469766560581b6044820152606490fd5b1561335157565b60405162461bcd60e51b815260206004820152601260248201527113585e081cdd5c1c1b1e481c995858da195960721b6044820152606490fd5b1561339257565b60405162461bcd60e51b815260206004820152602760248201527f4d696e74696e67206e6f74207374617274656420666f72207468697320746f6b604482015266656e207479706560c81b6064820152608490fd5b156133ee57565b60405162461bcd60e51b815260206004820152602560248201527f4d696e74696e672068617320656e64656420666f72207468697320746f6b656e604482015264207479706560d81b6064820152608490fd5b90816020910312610365575180151581036103655790565b5f1981146134675760010190565b634e487b7160e01b5f52601160045260245ffd5b1561348257565b60405162461bcd60e51b81526020600482015260156024820152744d697373696e6720726571756972656420726f6c6560581b6044820152606490fd5b156134c657565b60405162461bcd60e51b815260206004820152602d60248201527f4552433732313a2063616c6c6572206973206e6f7420746f6b656e206f776e6560448201526c1c881bdc88185c1c1c9bdd9959609a1b6064820152608490fd5b1561352857565b60405162461bcd60e51b815260206004820152602c60248201527f46756e6374696f6e206d7573742062652063616c6c6564207468726f7567682060448201526b19195b1959d85d1958d85b1b60a21b6064820152608490fd5b1561358957565b60405162461bcd60e51b815260206004820152602c60248201527f46756e6374696f6e206d7573742062652063616c6c6564207468726f7567682060448201526b6163746976652070726f787960a01b6064820152608490fd5b6099548110156135fb5760995f5260205f2001905f90565b634e487b7160e01b5f52603260045260245ffd5b1561361657565b60405162461bcd60e51b815260206004820152601860248201527f4552433732313a20696e76616c696420746f6b656e20494400000000000000006044820152606490fd5b5f908152606760205260409020546001600160a01b031661314d81151561360f565b6001600160a01b0316801561369b575f52606860205260405f205490565b60405162461bcd60e51b815260206004820152602960248201527f4552433732313a2061646472657373207a65726f206973206e6f7420612076616044820152683634b21037bbb732b960b91b6064820152608490fd5b5f81815260676020526040902054909190613717906001600160a01b0316151561360f565b604051905f926101fc54938361372c866131c5565b9182825260208201966001811690815f146139cf5750600114613982575b613756925003846130c0565b82511561396a575f526101f660205260405f2054801561392c575f526101fb60205261378460405f206131fd565b908151156138ed578151936137b161379b866130e1565b956137a960405197886130c0565b8087526130e1565b602086019490601f19013686375f5b84518110156138a6576137d38186614418565b516001600160f81b03198116604160f81b81101580613898575b15613826575060f81c6020019060ff82116134675760019160f81b6001600160f81b0319165f1a61381e828a614418565b535b016137c0565b6001929150606160f81b8110158061388a575b15613850575f1a61384a828a614418565b53613820565b600360fc1b8110158061387c575b1561386f575f1a61384a828a614418565b50605f61384a828a614418565b50603960f81b81111561385e565b50603d60f91b811115613839565b50602d60f91b8111156137ed565b50909361314d9350602090600593966040519687945180918587015e840190838201905f8252519283915e010164173539b7b760d91b815203601a198101845201826130c0565b929161314d91506020600c916040519485915180918484015e81016b3ab735b737bbb7173539b7b760a11b8382015203016013198101845201826130c0565b509190600c602061314d926040519485915180918484015e81016b3ab735b737bbb7173539b7b760a11b8382015203016013198101845201826130c0565b5091505060405161397c6020826130c0565b5f815290565b506101fc5f90815290915f51602061479d5f395f51905f525b8183106139b35750509060206137569282010161374a565b6020919350806001915483858a0101520191019091859261399b565b60ff191688525061375692151560051b8201602001905061374a565b908060209392818452848401375f828201840152601f01601f1916010190565b15613a1257565b60405162461bcd60e51b815260206004820152602b60248201527f496e697469616c697a61626c653a20636f6e7472616374206973206e6f74206960448201526a6e697469616c697a696e6760a81b6064820152608490fd5b60ff6101c35416613a7857565b60405162461bcd60e51b815260206004820152601060248201526f14185d5cd8589b194e881c185d5cd95960821b6044820152606490fd5b60026101915414613ac357600261019155565b60405162461bcd60e51b815260206004820152601f60248201527f5265656e7472616e637947756172643a207265656e7472616e742063616c6c006044820152606490fd5b9060209060405190613b1a83836130c0565b5f82526001600160a01b038416938415801590613c46575f83815260676020526040902054613b55906001600160a01b031615155b15614637565b613b5d613a6b565b60995495835f52609a86528660405f2055600160401b871015612da0576067610ed0968593613b99856112aa8c60016132359e016099556135e3565b613c16575b5f84815260676020526040902054613bc0906001600160a01b03161515613b4f565b825f526068815260405f2060018154019055835f525260405f20816001600160601b0360a01b8254161790555f7fddf252ad1be2c89b69c2b068fc378daa952ba7f163c4a11628f55a4df523b3ef8180a46144ef565b613c1f8561367d565b835f526097825260405f20815f5282528460405f2055845f526098825260405f2055613b9e565b6064856040519062461bcd60e51b825280600483015260248201527f4552433732313a206d696e7420746f20746865207a65726f20616464726573736044820152fd5b6001600160a01b0381165f8181526101fa60205260409020805415613f6b575b613cb28361367d565b9283600183015560038201600160ff1982541617905560018060a01b036101f5541690604051637264953b60e01b8152602081600481865afa80156127345782915f91613f34575b50604051632474521560e21b815260048101919091526001600160a01b03909116602482015260208180604481015b0381865afa908115612734575f91613f15575b5015613dc15750602060049160405192838092637264953b60e01b82525afa908115612734575f91613d8e575b506002935f51602061477d5f395f51905f52926020929586915b0155604051908152a3565b90506020813d602011613db9575b81613da9602093836130c0565b8101031261036557516002613d69565b3d9150613d9c565b604051635087a34f60e11b8152602081600481865afa908115612734575f91613ee1575b50604051632474521560e21b815260048101919091526001600160a01b03909116602482015260208180604481015b0381855afa908115612734575f91613ec2575b5015613ea457602060049160405192838092635087a34f60e11b82525afa908115612734575f91613e71575b506002935f51602061477d5f395f51905f5292602092958691613d83565b90506020813d602011613e9c575b81613e8c602093836130c0565b8101031261036557516002613e53565b3d9150613e7f565b5060206002935f51602061477d5f395f51905f52925f958691613d83565b613edb915060203d6020116108cc576108be81836130c0565b5f613e27565b90506020813d602011613f0d575b81613efc602093836130c0565b810103126103655751613e14613de5565b3d9150613eef565b613f2e915060203d6020116108cc576108be81836130c0565b5f613d3c565b9150506020813d602011613f63575b81613f50602093836130c0565b8101031261036557518190613d29613cfa565b3d9150613f43565b428155613ca9565b906001600160a01b03613f858261365b565b6001600160a01b0390931692168281149291908315613fc5575b508215613fab57505090565b9091506001600160a01b0390613fc0906132ca565b161490565b9092505f52606a60205260405f20815f5260205260ff60405f205416915f613f9f565b15613fef57565b60405162461bcd60e51b815260206004820152602560248201527f4552433732313a207472616e736665722066726f6d20696e636f72726563742060448201526437bbb732b960d91b6064820152608490fd5b9061404c8361365b565b6001600160a01b03838116929161406591168314613fe8565b6001600160a01b038116928315806142a55761407f613a6b565b8315908115908161429c575b5061424c575b156141a75750609954845f52609a6020528060405f2055600160401b811015612da057846112aa8260016140c894016099556135e3565b818303614173575b506140ed816001600160a01b036140e68661365b565b1614613fe8565b825f52606960205260405f206001600160601b0360a01b8154169055805f52606860205260405f205f198154019055815f52606860205260405f2060018154019055825f52606760205260405f20826001600160601b0360a01b8254161790557fddf252ad1be2c89b69c2b068fc378daa952ba7f163c4a11628f55a4df523b3ef5f80a4565b61417c9061367d565b825f52609760205260405f20815f526020528360405f2055835f52609860205260405f20555f6140d0565b8383036141b5575b506140c8565b6141be9061367d565b5f19810190811161346757845f52609860205260405f205481810361420b575b50845f5260986020525f6040812055825f52609760205260405f20905f526020525f60408120555f6141af565b835f52609760205260405f20825f5260205260405f2054845f52609760205260405f20825f526020528060405f20555f52609860205260405f20555f6141de565b855f526101f760205260ff60405f205416156140915760405162461bcd60e51b8152602060048201526012602482015271151bdad95b881a5cc81cdbdd5b189bdd5b9960721b6044820152606490fd5b9050155f61408b565b60405162461bcd60e51b8152602060048201526024808201527f4552433732313a207472616e7366657220746f20746865207a65726f206164646044820152637265737360e01b6064820152608490fd5b60c9546001600160a01b0316330361430a57565b606460405162461bcd60e51b815260206004820152602060248201527f4f776e61626c653a2063616c6c6572206973206e6f7420746865206f776e65726044820152fd5b60fb80546001600160a01b031990811690915560c980549182166001600160a01b0393841690811790915591167f8be0079c531659141344cd1fd0a4f28419497f9722a3daafe3b4186f6b6457e05f80a3565b60809060208152603260208201527f4552433732313a207472616e7366657220746f206e6f6e20455243373231526560408201527131b2b4bb32b91034b6b83632b6b2b73a32b960711b60608201520190565b156143fb57565b60405162461bcd60e51b815280614414600482016143a1565b0390fd5b9081518110156135fb570160200190565b803b156144655760018060a01b03166001600160601b0360a01b5f51602061475d5f395f51905f525416175f51602061475d5f395f51905f5255565b60405162461bcd60e51b815260206004820152602d60248201527f455243313936373a206e657720696d706c656d656e746174696f6e206973206e60448201526c1bdd08184818dbdb9d1c9858dd609a1b6064820152608490fd5b3d156144ea573d906144d1826130e1565b916144df60405193846130c0565b82523d5f602084013e565b606090565b91823b156145d757614534926020925f604051809681958294630a85bd0160e11b8452336004850152846024850152604484015260806064840152608483019061309c565b03926001600160a01b03165af15f9181614592575b5061457c576145566144c0565b805190816145775760405162461bcd60e51b815280614414600482016143a1565b602001fd5b6001600160e01b031916630a85bd0160e11b1490565b9091506020813d6020116145cf575b816145ae602093836130c0565b8101031261036557516001600160e01b03198116810361036557905f614549565b3d91506145a1565b505050600190565b919290803b1561462e57614534935f60209460405196879586948593630a85bd0160e11b855233600486015260018060a01b03166024850152604484015260806064840152608483019061309c565b50505050600190565b1561463e57565b60405162461bcd60e51b815260206004820152601c60248201527f4552433732313a20746f6b656e20616c7265616479206d696e746564000000006044820152606490fd5b919290156146e55750815115614697575090565b3b156146a05790565b60405162461bcd60e51b815260206004820152601d60248201527f416464726573733a2063616c6c20746f206e6f6e2d636f6e74726163740000006044820152606490fd5b8251909150156146f85750805190602001fd5b60405162461bcd60e51b81526020600482015290819061441490602483019061309c56fe46501879b8ca8525e8c2fd519e2fbfcfa2ebea26501294aa02cbfcfb12e943548ff97419363ffd7000167f130ef7168fbea05faf9251824ca5043f113cc6a7c7360894a13ba1a3210667c828492db98dca3e2076cc3735a920a3ca505d382bbcf5464dd24b0693799318922547fb6fbc47087e6cbb004af97add6021b8fc35f98cee2f00dca90bfd0fbe8afea13f02cfc28affb7127d856745c516a61ad439d0a264697066735822122023964f4efca159057795afcc85307a05164966156e28d09464e98b041db8edeb64736f6c634300081e0033",
    "sourcePath": "c:/Users/lmur2/blockchain-club/contracts/BlockchainClubMembership.sol",
    "compiler": {
        "name": "solc",
        "version": "0.8.30+commit.73712a01"
    },
    "functionHashes": {
        "MEMBER_TOKEN_TYPE()": "048b26c8",
        "acceptOwnership()": "79ba5097",
        "approve(address,uint256)": "095ea7b3",
        "balanceOf(address)": "70a08231",
        "burnToken(uint256)": "7b47ec1a",
        "createTokenType(bytes32,string,string,uint256,uint256,uint256,uint8)": "d9d171c3",
        "getApproved(uint256)": "081812fc",
        "getMemberCount()": "997072f7",
        "getOfficerCount()": "e935a2f5",
        "initialize(string,string,address)": "077f224a",
        "isApprovedForAll(address,address)": "e985e9c5",
        "memberStats(address)": "2d91060a",
        "mint(address,bytes32,bool)": "d126713f",
        "name()": "06fdde03",
        "owner()": "8da5cb5b",
        "ownerOf(uint256)": "6352211e",
        "pause()": "8456cb59",
        "paused()": "5c975abb",
        "pendingOwner()": "e30c3978",
        "proxiableUUID()": "52d1902d",
        "publicMint(bytes32,bool)": "0baa7a4f",
        "renounceOwnership()": "715018a6",
        "roles()": "392f5f64",
        "safeTransferFrom(address,address,uint256)": "42842e0e",
        "safeTransferFrom(address,address,uint256,bytes)": "b88d4fde",
        "setApprovalForAll(address,bool)": "a22cb465",
        "setBaseURI(string)": "55f804b3",
        "soulbound(uint256)": "7a181597",
        "supportsInterface(bytes4)": "01ffc9a7",
        "symbol()": "95d89b41",
        "tokenByIndex(uint256)": "4f6ccce7",
        "tokenOfOwnerByIndex(address,uint256)": "2f745c59",
        "tokenTypeConfigs(bytes32)": "24313ce0",
        "tokenTypes(uint256)": "33f6832a",
        "tokenURI(uint256)": "c87b56dd",
        "totalSupply()": "18160ddd",
        "transferFrom(address,address,uint256)": "23b872dd",
        "transferOwnership(address)": "f2fde38b",
        "unpause()": "3f4ba83a",
        "updateWhitelist(address,bool)": "0d392cd9",
        "upgradeTo(address)": "3659cfe6",
        "upgradeToAndCall(address,bytes)": "4f1ef286",
        "whitelist(address)": "9b19251a"
    },
    "gasEstimates": {
        "creation": {
            "codeDepositCost": "3683600",
            "executionCost": "infinite",
            "totalCost": "infinite"
        },
        "external": {
            "MEMBER_TOKEN_TYPE()": "180",
            "acceptOwnership()": "52890",
            "approve(address,uint256)": "infinite",
            "balanceOf(address)": "2987",
            "burnToken(uint256)": "infinite",
            "createTokenType(bytes32,string,string,uint256,uint256,uint256,uint8)": "infinite",
            "getApproved(uint256)": "4722",
            "getMemberCount()": "infinite",
            "getOfficerCount()": "infinite",
            "initialize(string,string,address)": "infinite",
            "isApprovedForAll(address,address)": "3484",
            "memberStats(address)": "9056",
            "mint(address,bytes32,bool)": "infinite",
            "name()": "infinite",
            "owner()": "2948",
            "ownerOf(uint256)": "2981",
            "pause()": "30340",
            "paused()": "2760",
            "pendingOwner()": "3146",
            "proxiableUUID()": "infinite",
            "publicMint(bytes32,bool)": "infinite",
            "renounceOwnership()": "52843",
            "roles()": "2618",
            "safeTransferFrom(address,address,uint256)": "infinite",
            "safeTransferFrom(address,address,uint256,bytes)": "infinite",
            "setApprovalForAll(address,bool)": "27241",
            "setBaseURI(string)": "infinite",
            "soulbound(uint256)": "2936",
            "supportsInterface(bytes4)": "384",
            "symbol()": "infinite",
            "tokenByIndex(uint256)": "7037",
            "tokenOfOwnerByIndex(address,uint256)": "5004",
            "tokenTypeConfigs(bytes32)": "infinite",
            "tokenTypes(uint256)": "2616",
            "tokenURI(uint256)": "infinite",
            "totalSupply()": "2440",
            "transferFrom(address,address,uint256)": "infinite",
            "transferOwnership(address)": "31182",
            "unpause()": "27927",
            "updateWhitelist(address,bool)": "infinite",
            "upgradeTo(address)": "infinite",
            "upgradeToAndCall(address,bytes)": "infinite",
            "whitelist(address)": "3159"
        },
        "internal": {
            "_authorizeUpgrade(address)": "infinite",
            "_baseURI()": "infinite",
            "_beforeTokenTransfer(address,address,uint256,uint256)": "infinite",
            "_toUrlSafe(string memory)": "infinite",
            "_updateMemberStats(address)": "infinite"
        }
    }
}