{
  "_format": "hh-sol-artifact-1",
  "contractName": "BlockchainClubMembership",
  "sourceName": "contracts/BlockchainClubMembership.sol",
  "abi": [
    {
      "anonymous": false,
      "inputs": [
        {
          "indexed": false,
          "internalType": "address",
          "name": "previousAdmin",
          "type": "address"
        },
        {
          "indexed": false,
          "internalType": "address",
          "name": "newAdmin",
          "type": "address"
        }
      ],
      "name": "AdminChanged",
      "type": "event"
    },
    {
      "anonymous": false,
      "inputs": [
        {
          "indexed": true,
          "internalType": "address",
          "name": "owner",
          "type": "address"
        },
        {
          "indexed": true,
          "internalType": "address",
          "name": "approved",
          "type": "address"
        },
        {
          "indexed": true,
          "internalType": "uint256",
          "name": "tokenId",
          "type": "uint256"
        }
      ],
      "name": "Approval",
      "type": "event"
    },
    {
      "anonymous": false,
      "inputs": [
        {
          "indexed": true,
          "internalType": "address",
          "name": "owner",
          "type": "address"
        },
        {
          "indexed": true,
          "internalType": "address",
          "name": "operator",
          "type": "address"
        },
        {
          "indexed": false,
          "internalType": "bool",
          "name": "approved",
          "type": "bool"
        }
      ],
      "name": "ApprovalForAll",
      "type": "event"
    },
    {
      "anonymous": false,
      "inputs": [
        {
          "indexed": true,
          "internalType": "address",
          "name": "beacon",
          "type": "address"
        }
      ],
      "name": "BeaconUpgraded",
      "type": "event"
    },
    {
      "anonymous": false,
      "inputs": [
        {
          "indexed": false,
          "internalType": "uint8",
          "name": "version",
          "type": "uint8"
        }
      ],
      "name": "Initialized",
      "type": "event"
    },
    {
      "anonymous": false,
      "inputs": [
        {
          "indexed": true,
          "internalType": "address",
          "name": "to",
          "type": "address"
        },
        {
          "indexed": true,
          "internalType": "uint256",
          "name": "tokenId",
          "type": "uint256"
        }
      ],
      "name": "MembershipMinted",
      "type": "event"
    },
    {
      "anonymous": false,
      "inputs": [
        {
          "indexed": true,
          "internalType": "address",
          "name": "officer",
          "type": "address"
        },
        {
          "indexed": true,
          "internalType": "uint256",
          "name": "tokenId",
          "type": "uint256"
        },
        {
          "indexed": false,
          "internalType": "string",
          "name": "action",
          "type": "string"
        }
      ],
      "name": "OfficerAction",
      "type": "event"
    },
    {
      "anonymous": false,
      "inputs": [
        {
          "indexed": true,
          "internalType": "address",
          "name": "previousOwner",
          "type": "address"
        },
        {
          "indexed": true,
          "internalType": "address",
          "name": "newOwner",
          "type": "address"
        }
      ],
      "name": "OwnershipTransferStarted",
      "type": "event"
    },
    {
      "anonymous": false,
      "inputs": [
        {
          "indexed": true,
          "internalType": "address",
          "name": "previousOwner",
          "type": "address"
        },
        {
          "indexed": true,
          "internalType": "address",
          "name": "newOwner",
          "type": "address"
        }
      ],
      "name": "OwnershipTransferred",
      "type": "event"
    },
    {
      "anonymous": false,
      "inputs": [
        {
          "indexed": false,
          "internalType": "address",
          "name": "account",
          "type": "address"
        }
      ],
      "name": "Paused",
      "type": "event"
    },
    {
      "anonymous": false,
      "inputs": [
        {
          "indexed": true,
          "internalType": "bytes32",
          "name": "role",
          "type": "bytes32"
        },
        {
          "indexed": true,
          "internalType": "bytes32",
          "name": "previousAdminRole",
          "type": "bytes32"
        },
        {
          "indexed": true,
          "internalType": "bytes32",
          "name": "newAdminRole",
          "type": "bytes32"
        }
      ],
      "name": "RoleAdminChanged",
      "type": "event"
    },
    {
      "anonymous": false,
      "inputs": [
        {
          "indexed": true,
          "internalType": "uint256",
          "name": "tokenId",
          "type": "uint256"
        },
        {
          "indexed": false,
          "internalType": "string",
          "name": "newRole",
          "type": "string"
        }
      ],
      "name": "RoleChanged",
      "type": "event"
    },
    {
      "anonymous": false,
      "inputs": [
        {
          "indexed": true,
          "internalType": "bytes32",
          "name": "role",
          "type": "bytes32"
        },
        {
          "indexed": true,
          "internalType": "address",
          "name": "account",
          "type": "address"
        },
        {
          "indexed": true,
          "internalType": "address",
          "name": "sender",
          "type": "address"
        }
      ],
      "name": "RoleGranted",
      "type": "event"
    },
    {
      "anonymous": false,
      "inputs": [
        {
          "indexed": true,
          "internalType": "bytes32",
          "name": "role",
          "type": "bytes32"
        },
        {
          "indexed": true,
          "internalType": "address",
          "name": "account",
          "type": "address"
        },
        {
          "indexed": true,
          "internalType": "address",
          "name": "sender",
          "type": "address"
        }
      ],
      "name": "RoleRevoked",
      "type": "event"
    },
    {
      "anonymous": false,
      "inputs": [
        {
          "indexed": true,
          "internalType": "address",
          "name": "owner",
          "type": "address"
        },
        {
          "indexed": true,
          "internalType": "uint256",
          "name": "tokenId",
          "type": "uint256"
        }
      ],
      "name": "TokenBurned",
      "type": "event"
    },
    {
      "anonymous": false,
      "inputs": [
        {
          "indexed": true,
          "internalType": "uint256",
          "name": "tokenId",
          "type": "uint256"
        }
      ],
      "name": "TokenInvalidated",
      "type": "event"
    },
    {
      "anonymous": false,
      "inputs": [
        {
          "indexed": true,
          "internalType": "uint256",
          "name": "oldTokenId",
          "type": "uint256"
        },
        {
          "indexed": true,
          "internalType": "uint256",
          "name": "newTokenId",
          "type": "uint256"
        },
        {
          "indexed": true,
          "internalType": "address",
          "name": "newOwner",
          "type": "address"
        }
      ],
      "name": "TokenReissued",
      "type": "event"
    },
    {
      "anonymous": false,
      "inputs": [
        {
          "indexed": true,
          "internalType": "address",
          "name": "from",
          "type": "address"
        },
        {
          "indexed": true,
          "internalType": "address",
          "name": "to",
          "type": "address"
        },
        {
          "indexed": true,
          "internalType": "uint256",
          "name": "tokenId",
          "type": "uint256"
        }
      ],
      "name": "Transfer",
      "type": "event"
    },
    {
      "anonymous": false,
      "inputs": [
        {
          "indexed": false,
          "internalType": "address",
          "name": "account",
          "type": "address"
        }
      ],
      "name": "Unpaused",
      "type": "event"
    },
    {
      "anonymous": false,
      "inputs": [
        {
          "indexed": true,
          "internalType": "address",
          "name": "implementation",
          "type": "address"
        }
      ],
      "name": "Upgraded",
      "type": "event"
    },
    {
      "anonymous": false,
      "inputs": [
        {
          "indexed": false,
          "internalType": "address",
          "name": "recipient",
          "type": "address"
        },
        {
          "indexed": false,
          "internalType": "uint256",
          "name": "amount",
          "type": "uint256"
        }
      ],
      "name": "Withdrawn",
      "type": "event"
    },
    {
      "inputs": [],
      "name": "DEFAULT_ADMIN_ROLE",
      "outputs": [
        {
          "internalType": "bytes32",
          "name": "",
          "type": "bytes32"
        }
      ],
      "stateMutability": "view",
      "type": "function"
    },
    {
      "inputs": [],
      "name": "OFFICER_ROLE",
      "outputs": [
        {
          "internalType": "bytes32",
          "name": "",
          "type": "bytes32"
        }
      ],
      "stateMutability": "view",
      "type": "function"
    },
    {
      "inputs": [],
      "name": "SUPPORTER_PRICE",
      "outputs": [
        {
          "internalType": "uint256",
          "name": "",
          "type": "uint256"
        }
      ],
      "stateMutability": "view",
      "type": "function"
    },
    {
      "inputs": [],
      "name": "acceptOwnership",
      "outputs": [],
      "stateMutability": "nonpayable",
      "type": "function"
    },
    {
      "inputs": [
        {
          "internalType": "address",
          "name": "to",
          "type": "address"
        },
        {
          "internalType": "uint256",
          "name": "tokenId",
          "type": "uint256"
        }
      ],
      "name": "approve",
      "outputs": [],
      "stateMutability": "nonpayable",
      "type": "function"
    },
    {
      "inputs": [
        {
          "internalType": "address",
          "name": "owner",
          "type": "address"
        }
      ],
      "name": "balanceOf",
      "outputs": [
        {
          "internalType": "uint256",
          "name": "",
          "type": "uint256"
        }
      ],
      "stateMutability": "view",
      "type": "function"
    },
    {
      "inputs": [],
      "name": "baseTokenURI",
      "outputs": [
        {
          "internalType": "string",
          "name": "",
          "type": "string"
        }
      ],
      "stateMutability": "view",
      "type": "function"
    },
    {
      "inputs": [
        {
          "internalType": "uint256",
          "name": "tokenId",
          "type": "uint256"
        }
      ],
      "name": "burn",
      "outputs": [],
      "stateMutability": "nonpayable",
      "type": "function"
    },
    {
      "inputs": [
        {
          "internalType": "string",
          "name": "",
          "type": "string"
        }
      ],
      "name": "editionWhitelist",
      "outputs": [
        {
          "internalType": "bool",
          "name": "",
          "type": "bool"
        }
      ],
      "stateMutability": "view",
      "type": "function"
    },
    {
      "inputs": [
        {
          "internalType": "uint256",
          "name": "tokenId",
          "type": "uint256"
        }
      ],
      "name": "getApproved",
      "outputs": [
        {
          "internalType": "address",
          "name": "",
          "type": "address"
        }
      ],
      "stateMutability": "view",
      "type": "function"
    },
    {
      "inputs": [
        {
          "internalType": "bytes32",
          "name": "role",
          "type": "bytes32"
        }
      ],
      "name": "getRoleAdmin",
      "outputs": [
        {
          "internalType": "bytes32",
          "name": "",
          "type": "bytes32"
        }
      ],
      "stateMutability": "view",
      "type": "function"
    },
    {
      "inputs": [
        {
          "internalType": "uint256",
          "name": "tokenId",
          "type": "uint256"
        }
      ],
      "name": "getSnapshotMetadata",
      "outputs": [
        {
          "internalType": "uint256",
          "name": "votingPower",
          "type": "uint256"
        },
        {
          "internalType": "string",
          "name": "role",
          "type": "string"
        }
      ],
      "stateMutability": "view",
      "type": "function"
    },
    {
      "inputs": [
        {
          "internalType": "uint256",
          "name": "tokenId",
          "type": "uint256"
        }
      ],
      "name": "getVotingWeight",
      "outputs": [
        {
          "internalType": "uint256",
          "name": "",
          "type": "uint256"
        }
      ],
      "stateMutability": "view",
      "type": "function"
    },
    {
      "inputs": [
        {
          "internalType": "bytes32",
          "name": "role",
          "type": "bytes32"
        },
        {
          "internalType": "address",
          "name": "account",
          "type": "address"
        }
      ],
      "name": "grantRole",
      "outputs": [],
      "stateMutability": "nonpayable",
      "type": "function"
    },
    {
      "inputs": [
        {
          "internalType": "address",
          "name": "",
          "type": "address"
        },
        {
          "internalType": "string",
          "name": "",
          "type": "string"
        }
      ],
      "name": "hasMintedRole",
      "outputs": [
        {
          "internalType": "bool",
          "name": "",
          "type": "bool"
        }
      ],
      "stateMutability": "view",
      "type": "function"
    },
    {
      "inputs": [
        {
          "internalType": "bytes32",
          "name": "role",
          "type": "bytes32"
        },
        {
          "internalType": "address",
          "name": "account",
          "type": "address"
        }
      ],
      "name": "hasRole",
      "outputs": [
        {
          "internalType": "bool",
          "name": "",
          "type": "bool"
        }
      ],
      "stateMutability": "view",
      "type": "function"
    },
    {
      "inputs": [
        {
          "internalType": "string",
          "name": "baseURI",
          "type": "string"
        },
        {
          "internalType": "address",
          "name": "_opsWallet",
          "type": "address"
        },
        {
          "internalType": "address",
          "name": "_scholarshipWallet",
          "type": "address"
        }
      ],
      "name": "initialize",
      "outputs": [],
      "stateMutability": "nonpayable",
      "type": "function"
    },
    {
      "inputs": [
        {
          "internalType": "uint256",
          "name": "",
          "type": "uint256"
        }
      ],
      "name": "invalidTokens",
      "outputs": [
        {
          "internalType": "bool",
          "name": "",
          "type": "bool"
        }
      ],
      "stateMutability": "view",
      "type": "function"
    },
    {
      "inputs": [
        {
          "internalType": "uint256",
          "name": "tokenId",
          "type": "uint256"
        }
      ],
      "name": "invalidateToken",
      "outputs": [],
      "stateMutability": "nonpayable",
      "type": "function"
    },
    {
      "inputs": [
        {
          "internalType": "address",
          "name": "owner",
          "type": "address"
        },
        {
          "internalType": "address",
          "name": "operator",
          "type": "address"
        }
      ],
      "name": "isApprovedForAll",
      "outputs": [
        {
          "internalType": "bool",
          "name": "",
          "type": "bool"
        }
      ],
      "stateMutability": "view",
      "type": "function"
    },
    {
      "inputs": [
        {
          "internalType": "uint256",
          "name": "",
          "type": "uint256"
        }
      ],
      "name": "isRecoveryToken",
      "outputs": [
        {
          "internalType": "bool",
          "name": "",
          "type": "bool"
        }
      ],
      "stateMutability": "view",
      "type": "function"
    },
    {
      "inputs": [
        {
          "internalType": "uint256",
          "name": "tokenId",
          "type": "uint256"
        }
      ],
      "name": "isTokenActive",
      "outputs": [
        {
          "internalType": "bool",
          "name": "",
          "type": "bool"
        }
      ],
      "stateMutability": "view",
      "type": "function"
    },
    {
      "inputs": [
        {
          "internalType": "string",
          "name": "edition",
          "type": "string"
        }
      ],
      "name": "mintOfficerEdition",
      "outputs": [],
      "stateMutability": "nonpayable",
      "type": "function"
    },
    {
      "inputs": [
        {
          "internalType": "address",
          "name": "newOwner",
          "type": "address"
        },
        {
          "internalType": "uint256",
          "name": "replacedTokenId",
          "type": "uint256"
        },
        {
          "internalType": "string",
          "name": "role",
          "type": "string"
        }
      ],
      "name": "mintRecoveryToken",
      "outputs": [],
      "stateMutability": "nonpayable",
      "type": "function"
    },
    {
      "inputs": [
        {
          "internalType": "string",
          "name": "role",
          "type": "string"
        },
        {
          "internalType": "uint256",
          "name": "price",
          "type": "uint256"
        },
        {
          "internalType": "bool",
          "name": "requireWhitelist",
          "type": "bool"
        }
      ],
      "name": "mintToken",
      "outputs": [],
      "stateMutability": "payable",
      "type": "function"
    },
    {
      "inputs": [
        {
          "internalType": "uint256",
          "name": "",
          "type": "uint256"
        }
      ],
      "name": "mintedBy",
      "outputs": [
        {
          "internalType": "address",
          "name": "",
          "type": "address"
        }
      ],
      "stateMutability": "view",
      "type": "function"
    },
    {
      "inputs": [],
      "name": "name",
      "outputs": [
        {
          "internalType": "string",
          "name": "",
          "type": "string"
        }
      ],
      "stateMutability": "view",
      "type": "function"
    },
    {
      "inputs": [],
      "name": "nextTokenId",
      "outputs": [
        {
          "internalType": "uint256",
          "name": "",
          "type": "uint256"
        }
      ],
      "stateMutability": "view",
      "type": "function"
    },
    {
      "inputs": [],
      "name": "opsWallet",
      "outputs": [
        {
          "internalType": "address",
          "name": "",
          "type": "address"
        }
      ],
      "stateMutability": "view",
      "type": "function"
    },
    {
      "inputs": [],
      "name": "owner",
      "outputs": [
        {
          "internalType": "address",
          "name": "",
          "type": "address"
        }
      ],
      "stateMutability": "view",
      "type": "function"
    },
    {
      "inputs": [
        {
          "internalType": "uint256",
          "name": "tokenId",
          "type": "uint256"
        }
      ],
      "name": "ownerOf",
      "outputs": [
        {
          "internalType": "address",
          "name": "",
          "type": "address"
        }
      ],
      "stateMutability": "view",
      "type": "function"
    },
    {
      "inputs": [],
      "name": "pause",
      "outputs": [],
      "stateMutability": "nonpayable",
      "type": "function"
    },
    {
      "inputs": [],
      "name": "paused",
      "outputs": [
        {
          "internalType": "bool",
          "name": "",
          "type": "bool"
        }
      ],
      "stateMutability": "view",
      "type": "function"
    },
    {
      "inputs": [],
      "name": "pendingOwner",
      "outputs": [
        {
          "internalType": "address",
          "name": "",
          "type": "address"
        }
      ],
      "stateMutability": "view",
      "type": "function"
    },
    {
      "inputs": [],
      "name": "proxiableUUID",
      "outputs": [
        {
          "internalType": "bytes32",
          "name": "",
          "type": "bytes32"
        }
      ],
      "stateMutability": "view",
      "type": "function"
    },
    {
      "inputs": [
        {
          "internalType": "uint256",
          "name": "oldTokenId",
          "type": "uint256"
        },
        {
          "internalType": "address",
          "name": "newOwner",
          "type": "address"
        }
      ],
      "name": "reissueToken",
      "outputs": [],
      "stateMutability": "nonpayable",
      "type": "function"
    },
    {
      "inputs": [],
      "name": "renounceOwnership",
      "outputs": [],
      "stateMutability": "nonpayable",
      "type": "function"
    },
    {
      "inputs": [
        {
          "internalType": "bytes32",
          "name": "role",
          "type": "bytes32"
        },
        {
          "internalType": "address",
          "name": "account",
          "type": "address"
        }
      ],
      "name": "renounceRole",
      "outputs": [],
      "stateMutability": "nonpayable",
      "type": "function"
    },
    {
      "inputs": [
        {
          "internalType": "uint256",
          "name": "",
          "type": "uint256"
        }
      ],
      "name": "replacesToken",
      "outputs": [
        {
          "internalType": "uint256",
          "name": "",
          "type": "uint256"
        }
      ],
      "stateMutability": "view",
      "type": "function"
    },
    {
      "inputs": [
        {
          "internalType": "bytes32",
          "name": "role",
          "type": "bytes32"
        },
        {
          "internalType": "address",
          "name": "account",
          "type": "address"
        }
      ],
      "name": "revokeRole",
      "outputs": [],
      "stateMutability": "nonpayable",
      "type": "function"
    },
    {
      "inputs": [
        {
          "internalType": "string",
          "name": "",
          "type": "string"
        }
      ],
      "name": "roleVotingPower",
      "outputs": [
        {
          "internalType": "uint256",
          "name": "",
          "type": "uint256"
        }
      ],
      "stateMutability": "view",
      "type": "function"
    },
    {
      "inputs": [
        {
          "internalType": "uint256",
          "name": "",
          "type": "uint256"
        }
      ],
      "name": "roles",
      "outputs": [
        {
          "internalType": "string",
          "name": "",
          "type": "string"
        }
      ],
      "stateMutability": "view",
      "type": "function"
    },
    {
      "inputs": [
        {
          "internalType": "address",
          "name": "from",
          "type": "address"
        },
        {
          "internalType": "address",
          "name": "to",
          "type": "address"
        },
        {
          "internalType": "uint256",
          "name": "tokenId",
          "type": "uint256"
        }
      ],
      "name": "safeTransferFrom",
      "outputs": [],
      "stateMutability": "nonpayable",
      "type": "function"
    },
    {
      "inputs": [
        {
          "internalType": "address",
          "name": "from",
          "type": "address"
        },
        {
          "internalType": "address",
          "name": "to",
          "type": "address"
        },
        {
          "internalType": "uint256",
          "name": "tokenId",
          "type": "uint256"
        },
        {
          "internalType": "bytes",
          "name": "data",
          "type": "bytes"
        }
      ],
      "name": "safeTransferFrom",
      "outputs": [],
      "stateMutability": "nonpayable",
      "type": "function"
    },
    {
      "inputs": [],
      "name": "scholarshipWallet",
      "outputs": [
        {
          "internalType": "address",
          "name": "",
          "type": "address"
        }
      ],
      "stateMutability": "view",
      "type": "function"
    },
    {
      "inputs": [
        {
          "internalType": "address",
          "name": "operator",
          "type": "address"
        },
        {
          "internalType": "bool",
          "name": "approved",
          "type": "bool"
        }
      ],
      "name": "setApprovalForAll",
      "outputs": [],
      "stateMutability": "nonpayable",
      "type": "function"
    },
    {
      "inputs": [
        {
          "internalType": "string",
          "name": "newBaseURI",
          "type": "string"
        }
      ],
      "name": "setBaseTokenURI",
      "outputs": [],
      "stateMutability": "nonpayable",
      "type": "function"
    },
    {
      "inputs": [
        {
          "internalType": "address[]",
          "name": "users",
          "type": "address[]"
        },
        {
          "internalType": "bool",
          "name": "status",
          "type": "bool"
        }
      ],
      "name": "setBatchWhitelist",
      "outputs": [],
      "stateMutability": "nonpayable",
      "type": "function"
    },
    {
      "inputs": [
        {
          "internalType": "string",
          "name": "edition",
          "type": "string"
        },
        {
          "internalType": "bool",
          "name": "status",
          "type": "bool"
        }
      ],
      "name": "setEditionWhitelist",
      "outputs": [],
      "stateMutability": "nonpayable",
      "type": "function"
    },
    {
      "inputs": [
        {
          "internalType": "address",
          "name": "_opsWallet",
          "type": "address"
        }
      ],
      "name": "setOpsWallet",
      "outputs": [],
      "stateMutability": "nonpayable",
      "type": "function"
    },
    {
      "inputs": [
        {
          "internalType": "uint256",
          "name": "tokenId",
          "type": "uint256"
        },
        {
          "internalType": "string",
          "name": "role",
          "type": "string"
        }
      ],
      "name": "setRole",
      "outputs": [],
      "stateMutability": "nonpayable",
      "type": "function"
    },
    {
      "inputs": [
        {
          "internalType": "address",
          "name": "_scholarshipWallet",
          "type": "address"
        }
      ],
      "name": "setScholarshipWallet",
      "outputs": [],
      "stateMutability": "nonpayable",
      "type": "function"
    },
    {
      "inputs": [
        {
          "internalType": "uint256",
          "name": "tokenId",
          "type": "uint256"
        },
        {
          "internalType": "bool",
          "name": "_status",
          "type": "bool"
        }
      ],
      "name": "setSoulbound",
      "outputs": [],
      "stateMutability": "nonpayable",
      "type": "function"
    },
    {
      "inputs": [
        {
          "internalType": "uint256",
          "name": "tokenId",
          "type": "uint256"
        },
        {
          "internalType": "uint256",
          "name": "expiryTimestamp",
          "type": "uint256"
        }
      ],
      "name": "setTokenExpiry",
      "outputs": [],
      "stateMutability": "nonpayable",
      "type": "function"
    },
    {
      "inputs": [
        {
          "internalType": "uint256",
          "name": "_newPrice",
          "type": "uint256"
        }
      ],
      "name": "setTokenPrice",
      "outputs": [],
      "stateMutability": "nonpayable",
      "type": "function"
    },
    {
      "inputs": [
        {
          "internalType": "address",
          "name": "user",
          "type": "address"
        },
        {
          "internalType": "bool",
          "name": "status",
          "type": "bool"
        }
      ],
      "name": "setWhitelist",
      "outputs": [],
      "stateMutability": "nonpayable",
      "type": "function"
    },
    {
      "inputs": [
        {
          "internalType": "uint256",
          "name": "",
          "type": "uint256"
        }
      ],
      "name": "soulbound",
      "outputs": [
        {
          "internalType": "bool",
          "name": "",
          "type": "bool"
        }
      ],
      "stateMutability": "view",
      "type": "function"
    },
    {
      "inputs": [
        {
          "internalType": "bytes4",
          "name": "interfaceId",
          "type": "bytes4"
        }
      ],
      "name": "supportsInterface",
      "outputs": [
        {
          "internalType": "bool",
          "name": "",
          "type": "bool"
        }
      ],
      "stateMutability": "view",
      "type": "function"
    },
    {
      "inputs": [],
      "name": "symbol",
      "outputs": [
        {
          "internalType": "string",
          "name": "",
          "type": "string"
        }
      ],
      "stateMutability": "view",
      "type": "function"
    },
    {
      "inputs": [
        {
          "internalType": "uint256",
          "name": "index",
          "type": "uint256"
        }
      ],
      "name": "tokenByIndex",
      "outputs": [
        {
          "internalType": "uint256",
          "name": "",
          "type": "uint256"
        }
      ],
      "stateMutability": "view",
      "type": "function"
    },
    {
      "inputs": [
        {
          "internalType": "uint256",
          "name": "",
          "type": "uint256"
        }
      ],
      "name": "tokenExpiry",
      "outputs": [
        {
          "internalType": "uint256",
          "name": "",
          "type": "uint256"
        }
      ],
      "stateMutability": "view",
      "type": "function"
    },
    {
      "inputs": [
        {
          "internalType": "address",
          "name": "owner",
          "type": "address"
        },
        {
          "internalType": "uint256",
          "name": "index",
          "type": "uint256"
        }
      ],
      "name": "tokenOfOwnerByIndex",
      "outputs": [
        {
          "internalType": "uint256",
          "name": "",
          "type": "uint256"
        }
      ],
      "stateMutability": "view",
      "type": "function"
    },
    {
      "inputs": [],
      "name": "tokenPrice",
      "outputs": [
        {
          "internalType": "uint256",
          "name": "",
          "type": "uint256"
        }
      ],
      "stateMutability": "view",
      "type": "function"
    },
    {
      "inputs": [
        {
          "internalType": "uint256",
          "name": "tokenId",
          "type": "uint256"
        }
      ],
      "name": "tokenURI",
      "outputs": [
        {
          "internalType": "string",
          "name": "",
          "type": "string"
        }
      ],
      "stateMutability": "view",
      "type": "function"
    },
    {
      "inputs": [],
      "name": "totalSupply",
      "outputs": [
        {
          "internalType": "uint256",
          "name": "",
          "type": "uint256"
        }
      ],
      "stateMutability": "view",
      "type": "function"
    },
    {
      "inputs": [
        {
          "internalType": "address",
          "name": "from",
          "type": "address"
        },
        {
          "internalType": "address",
          "name": "to",
          "type": "address"
        },
        {
          "internalType": "uint256",
          "name": "tokenId",
          "type": "uint256"
        }
      ],
      "name": "transferFrom",
      "outputs": [],
      "stateMutability": "nonpayable",
      "type": "function"
    },
    {
      "inputs": [
        {
          "internalType": "address",
          "name": "newOwner",
          "type": "address"
        }
      ],
      "name": "transferOwnership",
      "outputs": [],
      "stateMutability": "nonpayable",
      "type": "function"
    },
    {
      "inputs": [
        {
          "internalType": "address",
          "name": "to",
          "type": "address"
        },
        {
          "internalType": "uint256",
          "name": "tokenId",
          "type": "uint256"
        }
      ],
      "name": "transferWithExpiryCheck",
      "outputs": [],
      "stateMutability": "nonpayable",
      "type": "function"
    },
    {
      "inputs": [],
      "name": "unpause",
      "outputs": [],
      "stateMutability": "nonpayable",
      "type": "function"
    },
    {
      "inputs": [
        {
          "internalType": "address",
          "name": "newImplementation",
          "type": "address"
        }
      ],
      "name": "upgradeTo",
      "outputs": [],
      "stateMutability": "nonpayable",
      "type": "function"
    },
    {
      "inputs": [
        {
          "internalType": "address",
          "name": "newImplementation",
          "type": "address"
        },
        {
          "internalType": "bytes",
          "name": "data",
          "type": "bytes"
        }
      ],
      "name": "upgradeToAndCall",
      "outputs": [],
      "stateMutability": "payable",
      "type": "function"
    },
    {
      "inputs": [
        {
          "internalType": "address",
          "name": "",
          "type": "address"
        }
      ],
      "name": "whitelist",
      "outputs": [
        {
          "internalType": "bool",
          "name": "",
          "type": "bool"
        }
      ],
      "stateMutability": "view",
      "type": "function"
    },
    {
      "inputs": [],
      "name": "withdraw",
      "outputs": [],
      "stateMutability": "nonpayable",
      "type": "function"
    }
  ],
  "bytecode": "0x60a06040523060805234801561001457600080fd5b5060805161547461004c6000396000818161141b0152818161145b01528181611ad801528181611b180152611c2301526154746000f3fe6080604052600436106103b65760003560e01c806370a08231116101f9578063a217fddf1161011e578063d547741f116100b6578063e4cc58121161007a578063e4cc581214610cae578063e7a6592814610cce578063e985e9c514610cff578063ecb7120914610d1f578063f2fde38b14610d3f57600080fd5b8063d547741f14610c1b578063d547cfb714610c3b578063d9a8b1e214610c50578063dc5f9ecc14610c70578063e30c397814610c9057600080fd5b8063a217fddf14610af8578063a22cb46514610b0d578063acced42614610b2d578063b1945a4914610b5b578063b88d4fde14610b7b578063ba8f63c914610b9b578063bfda4a4914610bbb578063c87b56dd14610bdb578063d35dd46214610bfb57600080fd5b806388a7b3441161019157806388a7b344146109b25780638da5cb5b146109cd57806391d14854146109e25780639205035c14610a0257806395d89b4114610a3b578063966d964b14610a505780639b0b92ef14610a705780639b19251a14610a905780639c2b4daa14610ac157600080fd5b806370a08231146108b2578063715018a6146108d25780637264953b146108e7578063731dafcf1461090957806375794a3c1461092957806379ba5097146109405780637a181597146109555780637ff9b596146109865780638456cb591461099d57600080fd5b80633659cfe6116102df5780634f6ccce7116102775780634f6ccce71461079557806352d1902d146107b557806353d6fd59146107ca5780635937accb146107ea5780635c975abb146108185780636352211e1461083157806368db925a146108515780636a1d1be2146108725780636a61e5fc1461089257600080fd5b80633659cfe61461068a578063393ed91a146106aa5780633ccfd60b146106ca5780633f4ba83a146106df57806342842e0e146106f457806342966c6814610714578063463fd1af146107345780634aeb9917146107545780634f1ef2861461078257600080fd5b8063248a9ca311610352578063248a9ca3146105385780632bfb84fc146105695780632cc463ef146105895780632d4c9345146105aa5780632f2ff15d146105f75780632f745c591461061757806330176e1314610637578063318261fd1461065757806336568abe1461066a57600080fd5b806301ffc9a7146103bb57806306fdde03146103f0578063081812fc14610412578063095ea7b31461044a57806318160ddd1461046c5780631bb1953c1461048b5780631e7aa37d146104bc57806321c87c3a146104dc57806323b872dd14610518575b600080fd5b3480156103c757600080fd5b506103db6103d636600461449e565b610d5f565b60405190151581526020015b60405180910390f35b3480156103fc57600080fd5b50610405610d70565b6040516103e7919061450b565b34801561041e57600080fd5b5061043261042d36600461451e565b610e02565b6040516001600160a01b0390911681526020016103e7565b34801561045657600080fd5b5061046a610465366004614553565b610e29565b005b34801561047857600080fd5b506099545b6040519081526020016103e7565b34801561049757600080fd5b506103db6104a636600461451e565b61022e6020526000908152604090205460ff1681565b3480156104c857600080fd5b5061047d6104d736600461451e565b610f43565b3480156104e857600080fd5b506103db6104f736600461461f565b80516020818301810180516102318252928201919093012091525460ff1681565b34801561052457600080fd5b5061046a610533366004614653565b610fa0565b34801561054457600080fd5b5061047d61055336600461451e565b600090815261012d602052604090206001015490565b34801561057557600080fd5b5061046a61058436600461468f565b610fb3565b34801561059557600080fd5b5061023054610432906001600160a01b031681565b3480156105b657600080fd5b506103db6105c53660046146aa565b61022c602090815260009283526040909220815180830184018051928152908401929093019190912091525460ff1681565b34801561060357600080fd5b5061046a6106123660046146f7565b611004565b34801561062357600080fd5b5061047d610632366004614553565b61102a565b34801561064357600080fd5b5061046a61065236600461476b565b6110c0565b61046a6106653660046147bc565b6110d6565b34801561067657600080fd5b5061046a6106853660046146f7565b611393565b34801561069657600080fd5b5061046a6106a536600461468f565b611411565b3480156106b657600080fd5b5061046a6106c536600461451e565b6114d9565b3480156106d657600080fd5b5061046a61154a565b3480156106eb57600080fd5b5061046a6115dd565b34801561070057600080fd5b5061046a61070f366004614653565b611635565b34801561072057600080fd5b5061046a61072f36600461451e565b611648565b34801561074057600080fd5b5061046a61074f366004614818565b611748565b34801561076057600080fd5b5061047d61076f36600461451e565b6102356020526000908152604090205481565b61046a6107903660046146aa565b611ace565b3480156107a157600080fd5b5061047d6107b036600461451e565b611b83565b3480156107c157600080fd5b5061047d611c16565b3480156107d657600080fd5b5061046a6107e5366004614875565b611cc4565b3480156107f657600080fd5b5061080a61080536600461451e565b611d3e565b6040516103e792919061489f565b34801561082457600080fd5b506101f55460ff166103db565b34801561083d57600080fd5b5061043261084c36600461451e565b611e13565b34801561085d57600080fd5b5061022f54610432906001600160a01b031681565b34801561087e57600080fd5b5061046a61088d36600461476b565b611e48565b34801561089e57600080fd5b5061046a6108ad36600461451e565b6120ba565b3480156108be57600080fd5b5061047d6108cd36600461468f565b6120c8565b3480156108de57600080fd5b5061046a61214e565b3480156108f357600080fd5b5061047d6000805160206153b883398151915281565b34801561091557600080fd5b5061046a610924366004614553565b612160565b34801561093557600080fd5b5061047d6102285481565b34801561094c57600080fd5b5061046a6121ed565b34801561096157600080fd5b506103db61097036600461451e565b61022d6020526000908152604090205460ff1681565b34801561099257600080fd5b5061047d6102275481565b3480156109a957600080fd5b5061046a612264565b3480156109be57600080fd5b5061047d66470de4df82000081565b3480156109d957600080fd5b506104326122ba565b3480156109ee57600080fd5b506103db6109fd3660046146f7565b6122c9565b348015610a0e57600080fd5b5061047d610a1d36600461461f565b80516020818301810180516102368252928201919093012091525481565b348015610a4757600080fd5b506104056122f5565b348015610a5c57600080fd5b5061046a610a6b3660046148b8565b612304565b348015610a7c57600080fd5b506103db610a8b36600461451e565b612352565b348015610a9c57600080fd5b506103db610aab36600461468f565b61022a6020526000908152604090205460ff1681565b348015610acd57600080fd5b50610432610adc36600461451e565b610233602052600090815260409020546001600160a01b031681565b348015610b0457600080fd5b5061047d600081565b348015610b1957600080fd5b5061046a610b28366004614875565b61239c565b348015610b3957600080fd5b5061047d610b4836600461451e565b6102326020526000908152604090205481565b348015610b6757600080fd5b5061046a610b763660046148db565b6123a7565b348015610b8757600080fd5b5061046a610b96366004614926565b612494565b348015610ba757600080fd5b5061046a610bb636600461468f565b6124a8565b348015610bc757600080fd5b50610405610bd636600461451e565b6124f9565b348015610be757600080fd5b50610405610bf636600461451e565b612594565b348015610c0757600080fd5b5061046a610c1636600461498d565b6126b2565b348015610c2757600080fd5b5061046a610c363660046146f7565b612772565b348015610c4757600080fd5b50610405612798565b348015610c5c57600080fd5b5061046a610c6b366004614a07565b6127a6565b348015610c7c57600080fd5b5061046a610c8b3660046146f7565b6127e7565b348015610c9c57600080fd5b5060fb546001600160a01b0316610432565b348015610cba57600080fd5b5061046a610cc9366004614a51565b612963565b348015610cda57600080fd5b506103db610ce936600461451e565b6102346020526000908152604090205460ff1681565b348015610d0b57600080fd5b506103db610d1a366004614a73565b6129a3565b348015610d2b57600080fd5b5061046a610d3a366004614a9d565b6129d1565b348015610d4b57600080fd5b5061046a610d5a36600461468f565b612c8b565b6000610d6a82612cf1565b92915050565b606060658054610d7f90614af6565b80601f0160208091040260200160405190810160405280929190818152602001828054610dab90614af6565b8015610df85780601f10610dcd57610100808354040283529160200191610df8565b820191906000526020600020905b815481529060010190602001808311610ddb57829003601f168201915b5050505050905090565b6000610e0d82612d16565b506000908152606960205260409020546001600160a01b031690565b6000610e3482611e13565b9050806001600160a01b0316836001600160a01b031603610ea65760405162461bcd60e51b815260206004820152602160248201527f4552433732313a20617070726f76616c20746f2063757272656e74206f776e656044820152603960f91b60648201526084015b60405180910390fd5b336001600160a01b0382161480610ec25750610ec281336129a3565b610f345760405162461bcd60e51b815260206004820152603d60248201527f4552433732313a20617070726f76652063616c6c6572206973206e6f7420746f60448201527f6b656e206f776e6572206f7220617070726f76656420666f7220616c6c0000006064820152608401610e9d565b610f3e8383612d3b565b505050565b6000610f4e82612da9565b610f6a5760405162461bcd60e51b8152600401610e9d90614b30565b600082815261022b602052604090819020905161023691610f8a91614bd1565b9081526020016040518091039020549050919050565b610fa8612dc6565b610f3e838383612e0d565b610fbb612e3e565b6001600160a01b038116610fe15760405162461bcd60e51b8152600401610e9d90614bdd565b61023080546001600160a01b0319166001600160a01b0392909216919091179055565b600082815261012d602052604090206001015461102081612e9d565b610f3e8383612ea7565b6000611035836120c8565b82106110975760405162461bcd60e51b815260206004820152602b60248201527f455243373231456e756d657261626c653a206f776e657220696e646578206f7560448201526a74206f6620626f756e647360a81b6064820152608401610e9d565b506001600160a01b03919091166000908152609760209081526040808320938352929052205490565b6110c8612e3e565b610229610f3e828483614c69565b6110de612f2e565b6110e6612dc6565b80156111465733600090815261022a602052604090205460ff166111465760405162461bcd60e51b8152602060048201526017602482015276165bdd48185c99481b9bdd081dda1a5d195b1a5cdd1959604a1b6044820152606401610e9d565b8134101561118d5760405162461bcd60e51b8152602060048201526014602482015273125b9cdd59999a58da595b9d081c185e5b595b9d60621b6044820152606401610e9d565b33600090815261022c60205260409081902090516111ae9086908690614d22565b9081526040519081900360200190205460ff16156112185760405162461bcd60e51b815260206004820152602160248201527f596f75206861766520616c7265616479206d696e746564207468697320726f6c6044820152606560f81b6064820152608401610e9d565b610228546112263382612f89565b600081815261022b60205260409020611240858783614c69565b5033600090815261022c6020526040908190209051600191906112669088908890614d22565b9081526040805160209281900383019020805460ff19169315159390931790925560008381526102339091529081208054336001600160a01b03199091161790556102288054916112b683614d48565b9091555050604051819033907fbab4562ae868d1765ed8452e98bba908a974596c4babc3ada5e90e05e3f433fb90600090a382341115611381576000336112fd8534614d61565b604051600081818185875af1925050503d8060008114611339576040519150601f19603f3d011682016040523d82523d6000602084013e61133e565b606091505b505090508061137f5760405162461bcd60e51b815260206004820152600d60248201526c1499599d5b990819985a5b1959609a1b6044820152606401610e9d565b505b5061138d60016101c355565b50505050565b6001600160a01b03811633146114035760405162461bcd60e51b815260206004820152602f60248201527f416363657373436f6e74726f6c3a2063616e206f6e6c792072656e6f756e636560448201526e103937b632b9903337b91039b2b63360891b6064820152608401610e9d565b61140d8282612fab565b5050565b6001600160a01b037f00000000000000000000000000000000000000000000000000000000000000001630036114595760405162461bcd60e51b8152600401610e9d90614d74565b7f00000000000000000000000000000000000000000000000000000000000000006001600160a01b031661148b613013565b6001600160a01b0316146114b15760405162461bcd60e51b8152600401610e9d90614dc0565b6114ba8161302f565b604080516000808252602082019092526114d691839190613037565b50565b6114e1612e3e565b6114ea81612da9565b6115065760405162461bcd60e51b8152600401610e9d90614b30565b600081815261022e6020526040808220805460ff191660011790555182917fb58fd312e2f5e90f55ebc86ac80907ee8a7d7d46ae90a4a5ceb42f3337cd550691a250565b611552612e3e565b47600061155d6122ba565b6040519091506001600160a01b0382169083156108fc029084906000818181858888f19350505050158015611596573d6000803e3d6000fd5b50604080516001600160a01b0383168152602081018490527f7084f5476618d8e60b11ef0d7d3f06914655adb8793e28ff7f018d4c76d505d5910160405180910390a15050565b6115f56000805160206153b8833981519152336122c9565b8061160f5750336116046122ba565b6001600160a01b0316145b61162b5760405162461bcd60e51b8152600401610e9d90614e0c565b6116336131a2565b565b61163d612dc6565b610f3e8383836131f5565b611650612dc6565b61165981612da9565b6116755760405162461bcd60e51b8152600401610e9d90614b30565b3361167f82611e13565b6001600160a01b0316146116a55760405162461bcd60e51b8152600401610e9d90614e3a565b600081815261022d602052604090205460ff161561170f5760405162461bcd60e51b815260206004820152602160248201527f536f756c626f756e6420746f6b656e732063616e6e6f74206265206275726e656044820152601960fa1b6064820152608401610e9d565b61171881613210565b604051819033907f1af5163f80e79b5e554f61e1d052084d3a3fe1166e42a265798c4e2ddce8ffa290600090a350565b600054610100900460ff16158080156117685750600054600160ff909116105b806117825750303b158015611782575060005460ff166001145b6117e55760405162461bcd60e51b815260206004820152602e60248201527f496e697469616c697a61626c653a20636f6e747261637420697320616c72656160448201526d191e481a5b9a5d1a585b1a5e995960921b6064820152608401610e9d565b6000805460ff191660011790558015611808576000805461ff0019166101001790555b61185d604051806040016040528060188152602001770426c6f636b636861696e436c75624d656d626572736869760441b8152506040518060400160405280600381526020016242434d60e81b8152506132a1565b6118656132d2565b61186d6132f9565b6118756132d2565b61187d6132d2565b611885613328565b61188d613357565b6001600160a01b0383166118d85760405162461bcd60e51b8152602060048201526012602482015271125b9d985b1a59081bdc1cc81dd85b1b195d60721b6044820152606401610e9d565b6001600160a01b03821661192e5760405162461bcd60e51b815260206004820152601a60248201527f496e76616c6964207363686f6c6172736869702077616c6c65740000000000006044820152606401610e9d565b61022961193b8582614e7d565b5061022f80546001600160a01b038086166001600160a01b031992831617909255610230805492851692909116919091179055611979600033612ea7565b6119916000805160206153b883398151915233612ea7565b662386f26fc10000610227556001610228819055604080516627b33334b1b2b960c91b8152610236600782018190528251918290036027018220600390556526b2b6b132b960d11b8252600680830182905283519283900360269081018420959095556829bab83837b93a32b960b91b83526009808401839052845193849003602990810185206000908190556727b139b2b93b32b960c11b865260088601859052865195869003602801862081905565416c756d6e6960d01b865292850184905285519485900390960184208290556821b7b63632b1ba37b960b91b845283019190915291519081900390920190912055801561138d576000805461ff0019169055604051600181527f7f26b83ff96e1f2b6a682f133852f6798a09c465da95921460cefb38474024989060200160405180910390a150505050565b6001600160a01b037f0000000000000000000000000000000000000000000000000000000000000000163003611b165760405162461bcd60e51b8152600401610e9d90614d74565b7f00000000000000000000000000000000000000000000000000000000000000006001600160a01b0316611b48613013565b6001600160a01b031614611b6e5760405162461bcd60e51b8152600401610e9d90614dc0565b611b778261302f565b61140d82826001613037565b6000611b8e60995490565b8210611bf15760405162461bcd60e51b815260206004820152602c60248201527f455243373231456e756d657261626c653a20676c6f62616c20696e646578206f60448201526b7574206f6620626f756e647360a01b6064820152608401610e9d565b60998281548110611c0457611c04614f36565b90600052602060002001549050919050565b6000306001600160a01b037f00000000000000000000000000000000000000000000000000000000000000001614611cb15760405162461bcd60e51b815260206004820152603860248201527f555550535570677261646561626c653a206d757374206e6f742062652063616c6044820152771b1959081d1a1c9bdd59da0819195b1959d85d1958d85b1b60421b6064820152608401610e9d565b506000805160206153d883398151915290565b611cdc6000805160206153b8833981519152336122c9565b80611cf6575033611ceb6122ba565b6001600160a01b0316145b611d125760405162461bcd60e51b8152600401610e9d90614e0c565b6001600160a01b0391909116600090815261022a60205260409020805460ff1916911515919091179055565b60006060611d4b83612da9565b611d675760405162461bcd60e51b8152600401610e9d90614b30565b611d7083610f43565b600084815261022b60205260409020805491935090611d8e90614af6565b80601f0160208091040260200160405190810160405280929190818152602001828054611dba90614af6565b8015611e075780601f10611ddc57610100808354040283529160200191611e07565b820191906000526020600020905b815481529060010190602001808311611dea57829003601f168201915b50505050509050915091565b6000818152606760205260408120546001600160a01b031680610d6a5760405162461bcd60e51b8152600401610e9d90614f4c565b611e50612dc6565b6102318282604051611e63929190614d22565b9081526040519081900360200190205460ff16611ec25760405162461bcd60e51b815260206004820152601a60248201527f45646974696f6e206973206e6f742077686974656c69737465640000000000006044820152606401610e9d565b611eda6000805160206153b8833981519152336122c9565b611f325760405162461bcd60e51b815260206004820152602360248201527f4f6e6c79206f666669636572732063616e206d696e742074686973206564697460448201526234b7b760e91b6064820152608401610e9d565b33600090815261022c6020526040908190209051611f539084908490614d22565b9081526040519081900360200190205460ff1615611fbf5760405162461bcd60e51b8152602060048201526024808201527f596f75206861766520616c7265616479206d696e7465642074686973206564696044820152633a34b7b760e11b6064820152608401610e9d565b61022854611fcd3382612f89565b6040518060400160405280600781526020016627b33334b1b2b960c91b81525061022b6000838152602001908152602001600020908161200d9190614e7d565b5033600090815261022c6020526040908190209051600191906120339086908690614d22565b9081526040805160209281900383019020805460ff19169315159390931790925560008381526102339091529081208054336001600160a01b031990911617905561022880549161208383614d48565b9091555050604051819033907fbab4562ae868d1765ed8452e98bba908a974596c4babc3ada5e90e05e3f433fb90600090a3505050565b6120c2612e3e565b61022755565b60006001600160a01b0382166121325760405162461bcd60e51b815260206004820152602960248201527f4552433732313a2061646472657373207a65726f206973206e6f7420612076616044820152683634b21037bbb732b960b91b6064820152608401610e9d565b506001600160a01b031660009081526068602052604090205490565b612156612e3e565b6116336000613386565b8061216a8161339f565b156121aa5760405162461bcd60e51b815260206004820152601060248201526f151bdad95b881a5cc8195e1c1a5c995960821b6044820152606401610e9d565b336121b482611e13565b6001600160a01b0316146121da5760405162461bcd60e51b8152600401610e9d90614e3a565b6121e2612dc6565b610f3e3384846133c1565b60fb5433906001600160a01b0316811461225b5760405162461bcd60e51b815260206004820152602960248201527f4f776e61626c6532537465703a2063616c6c6572206973206e6f7420746865206044820152683732bb9037bbb732b960b91b6064820152608401610e9d565b6114d681613386565b61227c6000805160206153b8833981519152336122c9565b8061229657503361228b6122ba565b6001600160a01b0316145b6122b25760405162461bcd60e51b8152600401610e9d90614e0c565b611633613520565b60c9546001600160a01b031690565b600091825261012d602090815260408084206001600160a01b0393909316845291905290205460ff1690565b606060668054610d7f90614af6565b61230c612e3e565b61231582612da9565b6123315760405162461bcd60e51b8152600401610e9d90614b30565b600091825261022d6020526040909120805460ff1916911515919091179055565b600061235d82612da9565b6123795760405162461bcd60e51b8152600401610e9d90614b30565b6000828152610232602052604090205480158061239557508042105b9392505050565b61140d33838361355e565b6123b083612da9565b6123cc5760405162461bcd60e51b8152600401610e9d90614b30565b336123d56122ba565b6001600160a01b031614806123fd57506123fd6000805160206153b8833981519152336122c9565b61243a5760405162461bcd60e51b815260206004820152600e60248201526d139bdd08185d5d1a1bdc9a5e995960921b6044820152606401610e9d565b600083815261022b60205260409020612454828483614c69565b50827f8aa3cc18e560bb092ce364f03951a2ed1a54e91666cf0c4df825e05916e8b8168383604051612487929190614f7e565b60405180910390a2505050565b61249c612dc6565b61138d84848484613628565b6124b0612e3e565b6001600160a01b0381166124d65760405162461bcd60e51b8152600401610e9d90614bdd565b61022f80546001600160a01b0319166001600160a01b0392909216919091179055565b61022b602052600090815260409020805461251390614af6565b80601f016020809104026020016040519081016040528092919081815260200182805461253f90614af6565b801561258c5780601f106125615761010080835404028352916020019161258c565b820191906000526020600020905b81548152906001019060200180831161256f57829003601f168201915b505050505081565b606061259f82612da9565b6125bb5760405162461bcd60e51b8152600401610e9d90614b30565b600082815261022b6020526040812080546125d590614af6565b80601f016020809104026020016040519081016040528092919081815260200182805461260190614af6565b801561264e5780601f106126235761010080835404028352916020019161264e565b820191906000526020600020905b81548152906001019060200180831161263157829003601f168201915b50505050509050600081511115612695576102298161266c8561365a565b60405160200161267e93929190614fad565b604051602081830303815290604052915050919050565b6102296126a18461365a565b60405160200161267e929190615005565b6126ca6000805160206153b8833981519152336122c9565b806126e45750336126d96122ba565b6001600160a01b0316145b6127005760405162461bcd60e51b8152600401610e9d90614e0c565b60005b8281101561138d578161022a600086868581811061272357612723614f36565b9050602002016020810190612738919061468f565b6001600160a01b031681526020810191909152604001600020805460ff19169115159190911790558061276a81614d48565b915050612703565b600082815261012d602052604090206001015461278e81612e9d565b610f3e8383612fab565b610229805461251390614af6565b6127ae612e3e565b8061023184846040516127c2929190614d22565b908152604051908190036020019020805491151560ff19909216919091179055505050565b6127ff6000805160206153b8833981519152336122c9565b8061281957503361280e6122ba565b6001600160a01b0316145b6128355760405162461bcd60e51b8152600401610e9d90614e0c565b600082815261022e602052604090205460ff1661288f5760405162461bcd60e51b8152602060048201526018602482015277151bdad95b881a5cc81b9bdd081a5b9d985b1a59185d195960421b6044820152606401610e9d565b6001600160a01b0381166128e15760405162461bcd60e51b8152602060048201526019602482015278496e76616c6964206e6577206f776e6572206164647265737360381b6044820152606401610e9d565b610228546128ef8282612f89565b600083815261022b602052604080822083835291209061290f908261503a565b50610228805490600061292183614d48565b9190505550816001600160a01b031681847fb9506dcd235cdd38b000fe6623b602fb4e4d4c8e4b20e891d0731d04bff738a160405160405180910390a4505050565b61296b612e3e565b61297482612da9565b6129905760405162461bcd60e51b8152600401610e9d90614b30565b6000918252610232602052604090912055565b6001600160a01b039182166000908152606a6020908152604080832093909416825291909152205460ff1690565b6129e96000805160206153b8833981519152336122c9565b80612a035750336129f86122ba565b6001600160a01b0316145b612a1f5760405162461bcd60e51b8152600401610e9d90614e0c565b612a27612dc6565b600083815261022e602052604090205460ff16612a865760405162461bcd60e51b815260206004820152601d60248201527f4f6c6420746f6b656e206d75737420626520696e76616c6964617465640000006044820152606401610e9d565b6001600160a01b038416612ad05760405162461bcd60e51b815260206004820152601160248201527024b73b30b634b2103732bb9037bbb732b960791b6044820152606401610e9d565b60408051808201825260088152675265636f7665727960c01b6020808301919091526001600160a01b038716600090815261022c9091528290209151909190612b1a908390615106565b9081526040519081900360200190205460ff1615612b8e5760405162461bcd60e51b815260206004820152602b60248201527f416c7265616479206d696e746564207265636f7665727920746f6b656e20666f60448201526a72207468697320726f6c6560a81b6064820152608401610e9d565b610228805460009182612ba083614d48565b919050559050612bb08682612f89565b600081815261022b60205260409020612bca848683614c69565b506001600160a01b038616600090815261022c602052604090819020905160019190612bf7908590615106565b908152604080519182900360209081018320805494151560ff199586161790556000858152610233825282812080546001600160a01b0319163317905561023482528281208054909516600117909455610235905282208790556001600160a01b03881691839188917fb9506dcd235cdd38b000fe6623b602fb4e4d4c8e4b20e891d0731d04bff738a191a4505050505050565b612c93612e3e565b60fb80546001600160a01b0319166001600160a01b038316908117909155612cb96122ba565b6001600160a01b03167f38d16b8cac22d99fc7c124b9cd0de2d3fa1faef420bfe791d8c362d765e2270060405160405180910390a350565b60006001600160e01b03198216637965db0b60e01b1480610d6a5750610d6a826136ec565b612d1f81612da9565b6114d65760405162461bcd60e51b8152600401610e9d90614f4c565b600081815260696020526040902080546001600160a01b0319166001600160a01b0384169081179091558190612d7082611e13565b6001600160a01b03167f8c5be1e5ebec7d5bd14f71427d1e84f3dd0314c0f7b2291e5b200ac8c7c3b92560405160405180910390a45050565b6000908152606760205260409020546001600160a01b0316151590565b6101f55460ff16156116335760405162461bcd60e51b815260206004820152601060248201526f14185d5cd8589b194e881c185d5cd95960821b6044820152606401610e9d565b612e173382613711565b612e335760405162461bcd60e51b8152600401610e9d90615122565b610f3e8383836133c1565b33612e476122ba565b6001600160a01b0316146116335760405162461bcd60e51b815260206004820181905260248201527f4f776e61626c653a2063616c6c6572206973206e6f7420746865206f776e65726044820152606401610e9d565b6114d68133613770565b612eb182826122c9565b61140d57600082815261012d602090815260408083206001600160a01b03851684529091529020805460ff19166001179055612eea3390565b6001600160a01b0316816001600160a01b0316837f2f8788117e7eff1d82e926ec794901d17c78024a50270940304540a733656f0d60405160405180910390a45050565b60026101c35403612f815760405162461bcd60e51b815260206004820152601f60248201527f5265656e7472616e637947756172643a207265656e7472616e742063616c6c006044820152606401610e9d565b60026101c355565b61140d8282604051806020016040528060008152506137c9565b60016101c355565b612fb582826122c9565b1561140d57600082815261012d602090815260408083206001600160a01b0385168085529252808320805460ff1916905551339285917ff6391f5c32d9c69d2a47ea670b442974b53935d1edc7fd64eb21e047a839171b9190a45050565b6000805160206153d8833981519152546001600160a01b031690565b6114d6612e3e565b7f4910fdfa16fed3260ed0e7147f7cc6da11a60208b5b9406d12a635614ffd91435460ff161561306a57610f3e836137fc565b826001600160a01b03166352d1902d6040518163ffffffff1660e01b8152600401602060405180830381865afa9250505080156130c4575060408051601f3d908101601f191682019092526130c19181019061516f565b60015b6131275760405162461bcd60e51b815260206004820152602e60248201527f45524331393637557067726164653a206e657720696d706c656d656e7461746960448201526d6f6e206973206e6f74205555505360901b6064820152608401610e9d565b6000805160206153d883398151915281146131965760405162461bcd60e51b815260206004820152602960248201527f45524331393637557067726164653a20756e737570706f727465642070726f786044820152681a58589b195555525160ba1b6064820152608401610e9d565b50610f3e838383613898565b6131aa6138bd565b6101f5805460ff191690557f5db9ee0a495bf2e6ff9c91a7834c1ba4fdd244a5e8aa4e537bd38aeae4b073aa335b6040516001600160a01b03909116815260200160405180910390a1565b610f3e83838360405180602001604052806000815250612494565b600061321b82611e13565b905061322b816000846001613907565b61323482611e13565b600083815260696020908152604080832080546001600160a01b03199081169091556001600160a01b03851680855260688452828520805460001901905587855260679093528184208054909116905551929350849260008051602061541f833981519152908390a45050565b600054610100900460ff166132c85760405162461bcd60e51b8152600401610e9d90615188565b61140d8282613a1a565b600054610100900460ff166116335760405162461bcd60e51b8152600401610e9d90615188565b600054610100900460ff166133205760405162461bcd60e51b8152600401610e9d90615188565b611633613a5a565b600054610100900460ff1661334f5760405162461bcd60e51b8152600401610e9d90615188565b611633613a8a565b600054610100900460ff1661337e5760405162461bcd60e51b8152600401610e9d90615188565b611633613ab1565b60fb80546001600160a01b03191690556114d681613ae5565b6000818152610232602052604081205480158015906123955750421192915050565b826001600160a01b03166133d482611e13565b6001600160a01b0316146133fa5760405162461bcd60e51b8152600401610e9d906151d3565b6001600160a01b03821661345c5760405162461bcd60e51b8152602060048201526024808201527f4552433732313a207472616e7366657220746f20746865207a65726f206164646044820152637265737360e01b6064820152608401610e9d565b6134698383836001613907565b826001600160a01b031661347c82611e13565b6001600160a01b0316146134a25760405162461bcd60e51b8152600401610e9d906151d3565b600081815260696020908152604080832080546001600160a01b03199081169091556001600160a01b03878116808652606885528386208054600019019055908716808652838620805460010190558686526067909452828520805490921684179091559051849360008051602061541f83398151915291a4505050565b613528612dc6565b6101f5805460ff191660011790557f62e78cea01bee320cd4e420270b5ea74000d11b0c9f74754ebdbfc544b05a2586131d83390565b816001600160a01b0316836001600160a01b0316036135bb5760405162461bcd60e51b815260206004820152601960248201527822a9219b99189d1030b8383937bb32903a379031b0b63632b960391b6044820152606401610e9d565b6001600160a01b038381166000818152606a6020908152604080832094871680845294825291829020805460ff191686151590811790915591519182527f17307eab39ab6107e8899845ad3d59bd9653f200f220920489ca2b5937696c31910160405180910390a3505050565b6136323383613711565b61364e5760405162461bcd60e51b8152600401610e9d90615122565b61138d84848484613b37565b6060600061366783613b6a565b60010190506000816001600160401b038111156136865761368661457d565b6040519080825280601f01601f1916602001820160405280156136b0576020820181803683370190505b5090508181016020015b600019016f181899199a1a9b1b9c1cb0b131b232b360811b600a86061a8153600a85049450846136ba57509392505050565b60006001600160e01b0319821663780e9d6360e01b1480610d6a5750610d6a82613c42565b60008061371d83611e13565b9050806001600160a01b0316846001600160a01b03161480613744575061374481856129a3565b806137685750836001600160a01b031661375d84610e02565b6001600160a01b0316145b949350505050565b61377a82826122c9565b61140d5761378781613c92565b613792836020613ca4565b6040516020016137a3929190615218565b60408051601f198184030181529082905262461bcd60e51b8252610e9d9160040161450b565b6137d38383613e3f565b6137e06000848484613f48565b610f3e5760405162461bcd60e51b8152600401610e9d90615287565b6001600160a01b0381163b6138695760405162461bcd60e51b815260206004820152602d60248201527f455243313936373a206e657720696d706c656d656e746174696f6e206973206e60448201526c1bdd08184818dbdb9d1c9858dd609a1b6064820152608401610e9d565b6000805160206153d883398151915280546001600160a01b0319166001600160a01b0392909216919091179055565b6138a183614049565b6000825111806138ae5750805b15610f3e5761138d8383614089565b6101f55460ff166116335760405162461bcd60e51b815260206004820152601460248201527314185d5cd8589b194e881b9bdd081c185d5cd95960621b6044820152606401610e9d565b613913848484846140ae565b600082815261022d602052604090205460ff16801561393a57506001600160a01b03841615155b1561138d5781336001600160a01b03167f9667f3c6cb66154dda7e2db2fb0f3b7f64546650de2665cec73462cddb95bc2f6040516139b49060208082526022908201527f536f756c626f756e64207472616e7366657220617474656d707420626c6f636b604082015261195960f21b606082015260800190565b60405180910390a360405162461bcd60e51b815260206004820152602d60248201527f5472616e736665727320617265207265737472696374656420666f7220736f7560448201526c6c626f756e6420746f6b656e7360981b6064820152608401610e9d565b600054610100900460ff16613a415760405162461bcd60e51b8152600401610e9d90615188565b6065613a4d8382614e7d565b506066610f3e8282614e7d565b600054610100900460ff16613a815760405162461bcd60e51b8152600401610e9d90615188565b61163333613386565b600054610100900460ff16612fa35760405162461bcd60e51b8152600401610e9d90615188565b600054610100900460ff16613ad85760405162461bcd60e51b8152600401610e9d90615188565b6101f5805460ff19169055565b60c980546001600160a01b038381166001600160a01b0319831681179093556040519116919082907f8be0079c531659141344cd1fd0a4f28419497f9722a3daafe3b4186f6b6457e090600090a35050565b613b428484846133c1565b613b4e84848484613f48565b61138d5760405162461bcd60e51b8152600401610e9d90615287565b60008072184f03e93ff9f4daa797ed6e38ed64bf6a1f0160401b8310613ba95772184f03e93ff9f4daa797ed6e38ed64bf6a1f0160401b830492506040015b6d04ee2d6d415b85acef81000000008310613bd5576d04ee2d6d415b85acef8100000000830492506020015b662386f26fc100008310613bf357662386f26fc10000830492506010015b6305f5e1008310613c0b576305f5e100830492506008015b6127108310613c1f57612710830492506004015b60648310613c31576064830492506002015b600a8310610d6a5760010192915050565b60006001600160e01b031982166380ac58cd60e01b1480613c7357506001600160e01b03198216635b5e139f60e01b145b80610d6a57506301ffc9a760e01b6001600160e01b0319831614610d6a565b6060610d6a6001600160a01b03831660145b60606000613cb38360026152d9565b613cbe9060026152f0565b6001600160401b03811115613cd557613cd561457d565b6040519080825280601f01601f191660200182016040528015613cff576020820181803683370190505b509050600360fc1b81600081518110613d1a57613d1a614f36565b60200101906001600160f81b031916908160001a905350600f60fb1b81600181518110613d4957613d49614f36565b60200101906001600160f81b031916908160001a9053506000613d6d8460026152d9565b613d789060016152f0565b90505b6001811115613df0576f181899199a1a9b1b9c1cb0b131b232b360811b85600f1660108110613dac57613dac614f36565b1a60f81b828281518110613dc257613dc2614f36565b60200101906001600160f81b031916908160001a90535060049490941c93613de981615303565b9050613d7b565b5083156123955760405162461bcd60e51b815260206004820181905260248201527f537472696e67733a20686578206c656e67746820696e73756666696369656e746044820152606401610e9d565b6001600160a01b038216613e955760405162461bcd60e51b815260206004820181905260248201527f4552433732313a206d696e7420746f20746865207a65726f20616464726573736044820152606401610e9d565b613e9e81612da9565b15613ebb5760405162461bcd60e51b8152600401610e9d9061531a565b613ec9600083836001613907565b613ed281612da9565b15613eef5760405162461bcd60e51b8152600401610e9d9061531a565b6001600160a01b038216600081815260686020908152604080832080546001019055848352606790915280822080546001600160a01b03191684179055518392919060008051602061541f833981519152908290a45050565b60006001600160a01b0384163b1561403e57604051630a85bd0160e11b81526001600160a01b0385169063150b7a0290613f8c903390899088908890600401615351565b6020604051808303816000875af1925050508015613fc7575060408051601f3d908101601f19168201909252613fc491810190615384565b60015b614024573d808015613ff5576040519150601f19603f3d011682016040523d82523d6000602084013e613ffa565b606091505b50805160000361401c5760405162461bcd60e51b8152600401610e9d90615287565b805181602001fd5b6001600160e01b031916630a85bd0160e11b149050613768565b506001949350505050565b614052816137fc565b6040516001600160a01b038216907fbc7cd75a20ee27fd9adebab32041f755214dbc6bffa90cc0225b39da2e5c2d3b90600090a250565b606061239583836040518060600160405280602781526020016153f8602791396141e2565b600181111561411d5760405162461bcd60e51b815260206004820152603560248201527f455243373231456e756d657261626c653a20636f6e7365637574697665207472604482015274185b9cd9995c9cc81b9bdd081cdd5c1c1bdc9d1959605a1b6064820152608401610e9d565b816001600160a01b0385166141795761417481609980546000838152609a60205260408120829055600182018355919091527f72a152ddfb8e864297c917af52ea6c1c68aead0fee1a62673fcc7e0c94979d000155565b61419c565b836001600160a01b0316856001600160a01b03161461419c5761419c858261425a565b6001600160a01b0384166141b8576141b3816142f7565b6141db565b846001600160a01b0316846001600160a01b0316146141db576141db84826143a6565b5050505050565b6060600080856001600160a01b0316856040516141ff9190615106565b600060405180830381855af49150503d806000811461423a576040519150601f19603f3d011682016040523d82523d6000602084013e61423f565b606091505b5091509150614250868383876143ea565b9695505050505050565b60006001614267846120c8565b6142719190614d61565b6000838152609860205260409020549091508082146142c4576001600160a01b03841660009081526097602090815260408083208584528252808320548484528184208190558352609890915290208190555b5060009182526098602090815260408084208490556001600160a01b039094168352609781528383209183525290812055565b60995460009061430990600190614d61565b6000838152609a60205260408120546099805493945090928490811061433157614331614f36565b90600052602060002001549050806099838154811061435257614352614f36565b6000918252602080832090910192909255828152609a9091526040808220849055858252812055609980548061438a5761438a6153a1565b6001900381819060005260206000200160009055905550505050565b60006143b1836120c8565b6001600160a01b039093166000908152609760209081526040808320868452825280832085905593825260989052919091209190915550565b60608315614459578251600003614452576001600160a01b0385163b6144525760405162461bcd60e51b815260206004820152601d60248201527f416464726573733a2063616c6c20746f206e6f6e2d636f6e74726163740000006044820152606401610e9d565b5081613768565b613768838381511561446e5781518083602001fd5b8060405162461bcd60e51b8152600401610e9d919061450b565b6001600160e01b0319811681146114d657600080fd5b6000602082840312156144b057600080fd5b813561239581614488565b60005b838110156144d65781810151838201526020016144be565b50506000910152565b600081518084526144f78160208601602086016144bb565b601f01601f19169290920160200192915050565b60208152600061239560208301846144df565b60006020828403121561453057600080fd5b5035919050565b80356001600160a01b038116811461454e57600080fd5b919050565b6000806040838503121561456657600080fd5b61456f83614537565b946020939093013593505050565b634e487b7160e01b600052604160045260246000fd5b600082601f8301126145a457600080fd5b81356001600160401b03808211156145be576145be61457d565b604051601f8301601f19908116603f011681019082821181831017156145e6576145e661457d565b816040528381528660208588010111156145ff57600080fd5b836020870160208301376000602085830101528094505050505092915050565b60006020828403121561463157600080fd5b81356001600160401b0381111561464757600080fd5b61376884828501614593565b60008060006060848603121561466857600080fd5b61467184614537565b925061467f60208501614537565b9150604084013590509250925092565b6000602082840312156146a157600080fd5b61239582614537565b600080604083850312156146bd57600080fd5b6146c683614537565b915060208301356001600160401b038111156146e157600080fd5b6146ed85828601614593565b9150509250929050565b6000806040838503121561470a57600080fd5b8235915061471a60208401614537565b90509250929050565b60008083601f84011261473557600080fd5b5081356001600160401b0381111561474c57600080fd5b60208301915083602082850101111561476457600080fd5b9250929050565b6000806020838503121561477e57600080fd5b82356001600160401b0381111561479457600080fd5b6147a085828601614723565b90969095509350505050565b8035801515811461454e57600080fd5b600080600080606085870312156147d257600080fd5b84356001600160401b038111156147e857600080fd5b6147f487828801614723565b9095509350506020850135915061480d604086016147ac565b905092959194509250565b60008060006060848603121561482d57600080fd5b83356001600160401b0381111561484357600080fd5b61484f86828701614593565b93505061485e60208501614537565b915061486c60408501614537565b90509250925092565b6000806040838503121561488857600080fd5b61489183614537565b915061471a602084016147ac565b82815260406020820152600061376860408301846144df565b600080604083850312156148cb57600080fd5b8235915061471a602084016147ac565b6000806000604084860312156148f057600080fd5b8335925060208401356001600160401b0381111561490d57600080fd5b61491986828701614723565b9497909650939450505050565b6000806000806080858703121561493c57600080fd5b61494585614537565b935061495360208601614537565b92506040850135915060608501356001600160401b0381111561497557600080fd5b61498187828801614593565b91505092959194509250565b6000806000604084860312156149a257600080fd5b83356001600160401b03808211156149b957600080fd5b818601915086601f8301126149cd57600080fd5b8135818111156149dc57600080fd5b8760208260051b85010111156149f157600080fd5b60209283019550935061486c91860190506147ac565b600080600060408486031215614a1c57600080fd5b83356001600160401b03811115614a3257600080fd5b614a3e86828701614723565b909450925061486c9050602085016147ac565b60008060408385031215614a6457600080fd5b50508035926020909101359150565b60008060408385031215614a8657600080fd5b614a8f83614537565b915061471a60208401614537565b60008060008060608587031215614ab357600080fd5b614abc85614537565b93506020850135925060408501356001600160401b03811115614ade57600080fd5b614aea87828801614723565b95989497509550505050565b600181811c90821680614b0a57607f821691505b602082108103614b2a57634e487b7160e01b600052602260045260246000fd5b50919050565b602080825260149082015273151bdad95b88191bd95cc81b9bdd08195e1a5cdd60621b604082015260600190565b60008154614b6b81614af6565b60018281168015614b835760018114614b9857614bc7565b60ff1984168752821515830287019450614bc7565b8560005260208060002060005b85811015614bbe5781548a820152908401908201614ba5565b50505082870194505b5050505092915050565b60006123958284614b5e565b6020808252600f908201526e496e76616c6964206164647265737360881b604082015260600190565b601f821115610f3e57600081815260208120601f850160051c81016020861015614c2d5750805b601f850160051c820191505b81811015614c4c57828155600101614c39565b505050505050565b600019600383901b1c191660019190911b1790565b6001600160401b03831115614c8057614c8061457d565b614c9483614c8e8354614af6565b83614c06565b6000601f841160018114614cc25760008515614cb05750838201355b614cba8682614c54565b8455506141db565b600083815260209020601f19861690835b82811015614cf35786850135825560209485019460019092019101614cd3565b5086821015614d105760001960f88860031b161c19848701351681555b505060018560011b0183555050505050565b8183823760009101908152919050565b634e487b7160e01b600052601160045260246000fd5b600060018201614d5a57614d5a614d32565b5060010190565b81810381811115610d6a57610d6a614d32565b6020808252602c908201527f46756e6374696f6e206d7573742062652063616c6c6564207468726f7567682060408201526b19195b1959d85d1958d85b1b60a21b606082015260800190565b6020808252602c908201527f46756e6374696f6e206d7573742062652063616c6c6564207468726f7567682060408201526b6163746976652070726f787960a01b606082015260800190565b6020808252601490820152732737ba1037b33334b1b2b91037b91037bbb732b960611b604082015260600190565b60208082526023908201527f596f7520617265206e6f7420746865206f776e6572206f66207468697320746f60408201526235b2b760e91b606082015260800190565b81516001600160401b03811115614e9657614e9661457d565b614eaa81614ea48454614af6565b84614c06565b602080601f831160018114614ed95760008415614ec75750858301515b614ed18582614c54565b865550614c4c565b600085815260208120601f198616915b82811015614f0857888601518255948401946001909101908401614ee9565b5085821015614f265787850151600019600388901b60f8161c191681555b5050505050600190811b01905550565b634e487b7160e01b600052603260045260246000fd5b602080825260189082015277115490cdcc8c4e881a5b9d985b1a59081d1bdad95b88125160421b604082015260600190565b60208152816020820152818360408301376000818301604090810191909152601f909201601f19160101919050565b6000614fb98286614b5e565b8451614fc98183602089016144bb565b602f60f81b91019081528351614fe68160018401602088016144bb565b64173539b7b760d91b6001929091019182015260060195945050505050565b60006150118285614b5e565b83516150218183602088016144bb565b64173539b7b760d91b9101908152600501949350505050565b818103615045575050565b61504f8254614af6565b6001600160401b038111156150665761506661457d565b61507481614ea48454614af6565b6000601f8211600181146150a257600083156150905750848201545b61509a8482614c54565b8555506141db565b600085815260209020601f19841690600086815260209020845b838110156150dc57828601548255600195860195909101906020016150bc565b5085831015614f265793015460001960f8600387901b161c19169092555050600190811b01905550565b600082516151188184602087016144bb565b9190910192915050565b6020808252602d908201527f4552433732313a2063616c6c6572206973206e6f7420746f6b656e206f776e6560408201526c1c881bdc88185c1c1c9bdd9959609a1b606082015260800190565b60006020828403121561518157600080fd5b5051919050565b6020808252602b908201527f496e697469616c697a61626c653a20636f6e7472616374206973206e6f74206960408201526a6e697469616c697a696e6760a81b606082015260800190565b60208082526025908201527f4552433732313a207472616e736665722066726f6d20696e636f72726563742060408201526437bbb732b960d91b606082015260800190565b76020b1b1b2b9b9a1b7b73a3937b61d1030b1b1b7bab73a1604d1b81526000835161524a8160178501602088016144bb565b7001034b99036b4b9b9b4b733903937b6329607d1b601791840191820152835161527b8160288401602088016144bb565b01602801949350505050565b60208082526032908201527f4552433732313a207472616e7366657220746f206e6f6e20455243373231526560408201527131b2b4bb32b91034b6b83632b6b2b73a32b960711b606082015260800190565b8082028115828204841417610d6a57610d6a614d32565b80820180821115610d6a57610d6a614d32565b60008161531257615312614d32565b506000190190565b6020808252601c908201527f4552433732313a20746f6b656e20616c7265616479206d696e74656400000000604082015260600190565b6001600160a01b0385811682528416602082015260408101839052608060608201819052600090614250908301846144df565b60006020828403121561539657600080fd5b815161239581614488565b634e487b7160e01b600052603160045260246000fdfebbecb2568601cb27e6ced525237c463da94c4fb7a9b98ac79fd30fd56d8e1b53360894a13ba1a3210667c828492db98dca3e2076cc3735a920a3ca505d382bbc416464726573733a206c6f772d6c6576656c2064656c65676174652063616c6c206661696c6564ddf252ad1be2c89b69c2b068fc378daa952ba7f163c4a11628f55a4df523b3efa2646970667358221220ddeb0335e62a4e292f5d1170b34a0ea13535388f983732588fcce8ddb509ad8b64736f6c63430008140033",
  "linkReferences": {},
  "deployedLinkReferences": {}
}